:020000041008E2
:1000000000000808D5E70810A1ED081015EB08104E
:10001000A5ED0810A9ED0810ADED081000000000D6
:10002000000000000000000000000000EDEB0810E0
:10003000B1ED081000000000B5ED0810B9ED081092
:100040006BDD081091DD0810B7DD0810DDDD08104C
:1000500003DE081029DE08104FDE081075DE0810D8
:10006000BDED0810C1ED0810C5ED0810C9ED081070
:10007000CDED0810D1ED0810D5ED0810D9ED081020
:10008000C82E002E802E3DB1C82E002E802E91034A
:10009000802EBCB0802EA303C82E002E802E00B070
:1000A0005030212E59F51030212E6AF5802E3B0359
:1000B0000000000008190100220075000010001067
:1000C000D100B343802E00C1802E00C1802E00C11C
:1000D000802E00C1802E00C1802E00C1802E00C164
:1000E000802E00C1802E00C1802E00C1802E00C154
:1000F000802E00C1802E00C1802E00C1802E00C144
:10010000802E00C1802E00C1802E00C1802E00C133
:10011000802E00C1802E00C1802E00C1802E00C123
:10012000802E00C1802E00C1802E00C1802E00C113
:10013000802E00C1802E00C1802E00C1802E00C103
:10014000802E00C1802E00C1802E00C1802E00C1F3
:10015000802E00C1802E00C1802E00C1802E00C1E3
:10016000802E00C1802E00C1802E00C1E05F000003
:1001700000000100000000000000000000009200EC
:10018000000000000000000000000000000000006F
:1001900008190000880000000000000005E0AA38EF
:1001A00005E09030FA0096004B09110011000200A2
:1001B0002D01D47B3B01DB7A04003F7BCD6CC30473
:1001C0008509C304ECE60C460100270019009600DF
:1001D000A00001000C00F03C000101000300010040
:1001E0000E00000032000500EE060400C80000000A
:1001F0000400A805EE060004BC02B3008507000059
:1002000000000000000000000000000000000000EE
:100210000000B4000100B9000100980000000000D7
:100220000000000001008000040000000000000049
:1002300000000000000000000000000000000000BE
:1002400000000000000000000000000000000000AE
:10025000000000000000000000000000000000009E
:10026000000000000000000000000000000000008E
:1002700000000000000000000000802E00C1FD2DE5
:10028000DE00EB00DA00000CFF0F0004C0005BF59D
:10029000C9011EF280003FFF19F458F566F564F5B8
:1002A000C0F1F000E000CD01D301DB01FF7FFF01D1
:1002B000E40074F7F300FA00FF3FCA036C3856FEFF
:1002C00044FDBC02F90600FC1202AE0158FA9AFD88
:1002D0007705BB02960195017F01820189018701A3
:1002E00088018A018C018F018D0192019101DD004D
:1002F0009F017E01DB00B601706926D39C071F05B4
:100300009D000008BC0537FAA201AA01A101A801BD
:10031000A001A805B401B401CE00D000FC00C501C5
:10032000FFFBB10000380030FDF5FCF5CD01A00069
:100330005FFF0040FF0000806D0FEB007FFFC2F504
:1003400068F7B3F1670F5B0F610F800F58F75BF72A
:10035000830F8600720F850FC6F17F0F6CF700E0E8
:1003600000FFD1F5870F8A0FFF03F03F8B008E004F
:100370009000B9002DF5CAF5CB0120F20000000075
:10038000000000000000000000000000000000006D
:10039000000000000000000000000000000000005D
:1003A000000000000000000000000000000000004D
:1003B000000000000000000000000000000000003D
:1003C000000000000000000000000000000000002D
:1003D000000000000000000000000000000000001D
:1003E000000000000000000000000000000000000D
:1003F00000000000000000000000000000000000FD
:1004000000000000000000000000000000000000EC
:1004100000000000000000000000000000000000DC
:1004200000000000000000000000000000000000CC
:1004300000000000000000000000000000000000BC
:1004400000000000000000000000000000000000AC
:1004500000000000000000003050982ED70E5032EF
:10046000982EFA030030F07F002E002ED02E002EA2
:10047000018008A2FB2F982EBA03212E1900012E0D
:10048000EE0000B2072F012E190000B2032F015019
:100490000352982E07CC012EDD0000B2272F052E27
:1004A0008A000552982EC7C1032EE90040B2F07FA2
:1004B000082F012E190000B2042F0030212EE90070
:1004C000982EB4B1012E180000B2102F0550982EAE
:1004D0004DC30550982E5AC7982EF9B4982E54B291
:1004E000982E67B6982E17B21030212E7700012E65
:1004F000EF0000B2042F982E7AB70030212EEF00C3
:10050000012ED40004AE0B2F012EDD0000B2072F08
:100510000552982E8E0E00B2022F1030212E7D0033
:10052000012E7D000090902EF102012ED70000B226
:10053000042F982E2F0E0030212E7B00012E7B00E1
:1005400000B2122F012ED4000090022F982E1F0E01
:10055000092D982E810D012ED4000490022F5032C7
:10056000982EFA030030212E7B00012E7C0000B271
:10057000902E0903012E7C000131010800B2042FE6
:10058000982E47CB1030212E77008130012E7C0031
:10059000010800B2612F032E8900012ED40098BCFF
:1005A00098B805B20F58232F079009540030372F01
:1005B00015410441DCBE44BEDCBA2C0161000F567B
:1005C0004A0F0C2FD14294B8C1421130052E6AF760
:1005D0002CBD2FB980B20822982EC3B7212D6130CF
:1005E000232ED400982EC3B70030212E5AF5182D93
:1005F000E17F5030982EFA030F520750504270306E
:100600000D5442427E82E26F80B24242052F212E7B
:10061000D4001030982EC3B7032D6030212ED400A3
:10062000012ED4000690182F012E76000B5407528D
:10063000E07F982E7AC1E16F081A4030082F212EF2
:10064000D4002030982EAFB75032982EFA03052DE3
:10065000982E380E0030212ED4000030212E7C0040
:10066000182D012ED40003AA012F982E450E012E1D
:10067000D4003F8003A2012F002E022D982E5B0E86
:100680003030982ECEB70030212E7D005032982E7B
:10069000FA03012E770000B2242F982EF5CB032EFB
:1006A000D5001154010ABC848386212EC901E04083
:1006B0001352C4408240A8B9524243BE5342040A76
:1006C0005042E17FF0314140F26F25BD0808020A37
:1006D000D07F982EA8CF06BCD16FE26F080A804267
:1006E000982E58B70030212EEE00212E7700212EB3
:1006F000DD00802EF4011A242200802EEC0110501F
:10070000FB7F982EF3035750FB6F01307154114259
:10071000420EFC2FC02E0142F05F802E00C1FD2D45
:100720000100000000000000000000009A013403F6
:1007300000000000000000000000000000000000B9
:1007400000000000000000000000000000000000A9
:100750000000000000000000000000000000000099
:100760000000000000000000000000000000000089
:100770000000000000000000000000000000000079
:100780000000000000000000000000000000000069
:100790000000000000000000000000000000000059
:1007A00000002050E77FF67F06320F2E61F5FE092C
:1007B000C0B3042F17302F2EEF002D2E61F5F66FEA
:1007C000E76FE05FC82E2050E77FF67F46300F2EA0
:1007D000A4F1BE0980B3062F0D2ED40084AF022FE2
:1007E00016302D2E7B0086302D2E60F5F66FE76FCC
:1007F000E05FC82E012E77F709BC0FB800B2105089
:10080000FB7F10300B2F032E8A0096BC9FB840B29E
:10081000052F032E68F79EBC9FB840B2072F032E0A
:100820007E004190012F982EDC03032C0030212EF6
:100830007E00FB6FF05FB82E2050E07FFB7F002E24
:100840002750982E3BC82950982EA7C80150982EA3
:1008500055CCE16F2B50982EE0C9FB6F0030E05F64
:10086000212E7E00B82E7350013057541142420E93
:10087000FC2FB82E212E59F51030C02E212E4AF112
:100880009050F77FE67FD57FC47FB37FA17F907FB5
:10089000827F7B7F982E35B700B2902E97B0032EC3
:1008A0008F00072E9100052EB1003FBA9FB8012E90
:1008B000B100A3BD4C0A052EB10004BEBFB9CB0ADE
:1008C0004FBA22BD012EB300DC0A2FB9032EB800A7
:1008D0000ABE9A0ACFB99BBC012E97009FB8930A13
:1008E0000FBC910A0FB8900A252E1800052EC1F5ED
:1008F0002EBD2EB9012E190031308A040090072F29
:10090000012ED40004A2032F012E180000B20C2FD8
:1009100019500552982E4DB7052E78008090103052
:10092000012F212E7800252EDD00982E3EB700B233
:1009300002300130042F012E190000B2002F2130A7
:10094000012EEA00081A0E2F232EEA0033301B5026
:100950000B090140175646BE4B084C0A01420A805B
:1009600015520142002E012E180000B21F2F032E37
:10097000C0F5F030480847AA7430072E7A0061228B
:100980004B1A052F072E66F5BFBDBFB9C0900B2FC0
:100990001D562B30D242DB420104C24204BDFE8010
:1009A0008184232E7A0002420232252E62F5052E22
:1009B000D6008184252ED6000231252E60F5052E25
:1009C0008A000B50900880B20B2F052ECAF5F03E1E
:1009D0009008252ECAF5052E59F5E03F9008252EE2
:1009E00059F5906FA16FB36FC46FD56FE66FF76F56
:1009F0007B6F826F705FC82EC050907FE57FD47F81
:100A0000C37FB17FA27F877FF67F7B7F002E012E81
:100A100060F5607F982E35B70230636F1552507FB6
:100A2000627F5A2C02321A0900B3142F00B2032F2E
:100A3000092E180000910C2F437F982E97B71F5056
:100A4000028A02320430252E64F51552506F436F2E
:100A50004443252E60F5D908C0B2362F982E3EB7F4
:100A600000B2062F012E190000B2022F506F009025
:100A70000A2F012E79000090192F1030212E7900B5
:100A80000030982EDC03132D012EC3F50CBC0FB8DB
:100A90001230100403B0262521500352982E4DB772
:100AA0001030212EEE000230607F252E7900606F1D
:100AB0000090052F0030212EEA001550212E64F5FC
:100AC0001552232E60F50232506F0090022F033032
:100AD000272E7800072E60F51A090091A32F190917
:100AE0000091A02F906FA26FB16FC36FD46FE56FAD
:100AF0007B6FF66F876F405FC82EC050E77FF67F31
:100B000026300F2E61F52F2E7C000F2E7C00BE09A3
:100B1000A27F807F80B3D57FC47FB37F917F7B7FAF
:100B20000B2F23501A251240427F74821240527FAD
:100B3000002E0040607F982E6AD68130012E7C0006
:100B4000010800B2422F032E8900012E890097BCB4
:100B500006BC9FB80FB80090232ED800103001308B
:100B60002A2F032ED40044B2052F47B200302D2F78
:100B7000212E7C002B2D032EFDF59EBC9FB84090AE
:100B8000142F032EFCF599BC9FB840900E2F032E16
:100B900049F125544A084090082F982E35B700B2E5
:100BA0001030032F5030212ED400102D982EAFB7C7
:100BB0000030212E7C000A2D052E69F72DBD2FB99E
:100BC00080B2012F212E7D00232E7C00E031212ECA
:100BD00061F5F66FE76F806FA26FB36FC46FD56F6B
:100BE0007B6F916F405FC82E60510A253688F47F75
:100BF000EB7F0032315232301330982E15CB0A255C
:100C00003384D27F433005502D52982E95C1D26F38
:100C10002752982ED7C72A25B086C07FD37FAF84AE
:100C20002950F16F982E4DC82A25AE8AAA88F26EF7
:100C30002B50C16FD36FF47F982EB6C8E06E00B210
:100C4000322F33548386F16FC37F04303030F47F0A
:100C5000D07FB27FE330C56F56404541280803146A
:100C60000EB408BC8240100A2F542605917F4428F8
:100C7000A37F982ED9C008B933305309C16FD36F01
:100C8000F46F831747406C15B26FBE09750B904225
:100C90004542510E32BC0289A16F7E86F47FD07F1F
:100CA000B27F0430916FD62FEB6FA05EB82E032E6B
:100CB00097001BBC60509FBC0CB8F07F40B2EB7F2C
:100CC0002B2F032E7F004140012EC800011A112F47
:100CD0003758232EC8001041A07F38810141D07FB2
:100CE000B17F982E64CFD06F0780A16F1142002E84
:100CF000B16F01421130012EFC0000A80330CB225D
:100D00004A25012E7F003C8935520554982EC4CEC9
:100D1000C16FF06F982E95CF042D0130F06F982E93
:100D200095CFEB6FA05FB82E032EB3000232F030E8
:100D3000033130508A080808CB08E07F80B2F37F87
:100D4000DB7F252F032ECA004190042F0130232E74
:100D5000CA00982E3F03C0B2052F032EDA000030E0
:100D60004104232EDA00982E92B21025F06F00B2C3
:100D7000052F012EDA0002301004212EDA0040B2D5
:100D8000012F232EC801DB6FE06FD05F802E95CF3F
:100D90000130E06F982E95CF1130232ECA00DB6F03
:100DA000D05FB82ED0500A2533845550D27FE27FD1
:100DB000038CC07FBB7F0030055A39545141A57F59
:100DC000967F807F982ED9C00530F57F2025916FC2
:100DD0003B583D5C3B56982E67CCC16FD56F524057
:100DE0005043C17FD57F1025982EFEC91025982E1F
:100DF00074C0866F3028926F828CA56F6F52690E17
:100E00003954DB2F19A01530032F0030212E81011A
:100E10000A2D012E810105284236212E8101020E64
:100E2000012F982EF303575012300140982EFEC91F
:100E3000516F0B5C8E0E3B6F57580230212E95017F
:100E4000456F2A8DD27FCB7F132F02303F50D27F48
:100E5000A80E0E2FC06F535402005154420E103092
:100E600059520230012F002E032D504242421230BF
:100E7000D27F80B2032F0030212E8001122D012E4F
:100E8000C9000280052E8001113091280040252ED6
:100E90008001100E052F012E7F010190012F982E49
:100EA000F303002EA0410190A67F902EE3B4012E03
:100EB000950100A8902EE3B45B549580824080B2E7
:100EC00002402D8C3F52967F902EC2B3290E762F72
:100ED000012EC900004081284552B330982E0FCA18
:100EE0005D54807F002EA140727F82808240607FAF
:100EF000982EFEC91025982E74C0626F0530874069
:100F0000C0910430052F052E830180B21430002FCC
:100F10000430052EC900736F8140E2406904110F4F
:100F2000E1401630FE29CB40022F836F830F222F22
:100F30004756130F1230772F4954420E1230732F39
:100F400000910A2F012E8B0119A802306C2F6350DB
:100F5000002E17420542682C12300B25080F503026
:100F6000022F212E8301032D4030212E83012B2EB1
:100F700085015A2C123000912B25042F635002302A
:100F80001742172C0242982EFEC91025982E74C0C5
:100F9000052EC90081845B308240372E8301020E0A
:100FA000072F5F52403062404140910E012F212EA9
:100FB000830105302B2E85011230362C1630152575
:100FC000817F982EFEC91025982E74C019A2163064
:100FD000152F052E9701806F820E052F012E860199
:100FE0000628212E86010B2D032E87015F544E28E3
:100FF0009142002E8240900E012F212E8801023056
:10100000132C0530C06F081CA80F163005305B503C
:10101000092F02802D2E820105420580002E0242FA
:101020003E80002E06420230906F3E88014004410F
:101030004C280142078010252440004000A8F522DA
:10104000232944427A827E884340044100ABF52341
:10105000DF284342D9A0142F0090022FD26F81B213
:10106000052F6354062890428542092C02305B50BC
:101070000380292E7E012B2E8201054212302B2E59
:1010800083014582002E40407A8202A0082F6350DF
:101090003B30154205423780372E7E010542123023
:1010A000012EC900028C404084417A8C040F032F2A
:1010B000012E8B0119A4042F2B2E8201982EF303ED
:1010C000123081906152082F654265424380398415
:1010D00082880542454285420543002E80410090AA
:1010E000902EE1B46554C16F804000B243586950FE
:1010F000442F555CB7878C0F0D2E9601C440362FB8
:1011000041568B0E2A2F0B52A10E0A2F052E8F014E
:101110001425982EFEC94B54020F695005306554B2
:10112000152F032E8E014D5C8E0F3A2F052E8F0149
:10113000982EFEC94F54820F053069506554302FE8
:101140006D521530428C454204302B2C84436B5237
:10115000428C002E85431530242C45428E0F202FC3
:101160000D2E8E01B10E1C2F232E8E011A2D0E0E68
:10117000172FA10F152F232E8D01132D982E74C01C
:101180004354C20E0A2F655004800B3006820B4276
:10119000798041401230252E8C0101420530695082
:1011A000655484824384BE8C8440864126299442BF
:1011B000BE8ED57F19A143400B2E8C018440C741C0
:1011C0005D29272945428442C27F012FC0B31D2FCC
:1011D000052E940199A0012F80B3132F80B3182FEF
:1011E000C0B3162F12400140927F982E74C0926FA8
:1011F000100F2030032F1030212E7E010A2D212EBA
:101200007E01072D2030212E7E01032D1030212E4E
:101210007E01C26F012EC900BC8402808240004062
:10122000900ED56F022F1530982EF30341910530A3
:10123000072F67503D802B2E8F0105420480002E22
:101240000542022C00300030A26F988A864080A7A9
:10125000052F982EF303C030212E950106251A255F
:10126000E26F768296405643510EFB2FBB6F305F84
:10127000B82E012EB8000131410840B22050F230A2
:101280000208FB7F0130102F052ECC008190E07FFB
:10129000032F232ECC00982E55B6982E1DB5102561
:1012A000FB6FE06FE05F802E95CF982E95CF1030CA
:1012B000212ECC00FB6FE05FB82E00510558EB7F6C
:1012C0002A2589526F5A895013410640B3011642AC
:1012D000CB160640F3021342650EF52F054014307D
:1012E0002C29044208A10030902E52B6B388B08A4F
:1012F000B684A47FC47FB57FD57F927F73300430DE
:10130000554042408A17F3086B01900253B84B8254
:10131000ADBE717F450A0954847F982ED9C0A36F52
:101320007B54D042A37FF27F607F2025716F755A76
:101330007758795C7556982E67CCB16F626F5042C2
:10134000B17FB3301025982E0FCA846F2029716F9A
:10135000926FA56F76826A0E73300030D02FD26FF5
:10136000D17FB47F982E2BB715BD0BB8020AC26F80
:10137000C07F982E2BB715BD0BB8420AC06F081757
:1013800041188916E118D018A17F27251625982E17
:1013900079C08B54907FB330824080900D2F7D5266
:1013A000926F982E0FCAB26F900E062F8B5014308A
:1013B000426F516F144212420142002E316F982E3B
:1013C00074C0416F807F982E74C0826F10044352A6
:1013D000010F052ECB0000300430212F516F4358F0
:1013E0008C0E04301C2F8588416F04418C0F043013
:1013F000162F8488002E044104058C0E04300F2F14
:101400008288316F044104058C0E0430082F8388D4
:10141000002E04418C0F0430022F212EAD01143018
:101420000091142F032EA10141900E2F032EAD0128
:1014300014304C28232EAD0146A0062F81848D52F6
:1014400048828240212EA10142425C2C0230052EAE
:10145000AA0180B20230552F032EA901926FB3303A
:10146000982E0FCAB26F900F003002304A2FA26F31
:10147000875291008552510E022F002E432C0230CC
:10148000C26F7F52910E02303C2F516F8154982EC3
:10149000FEC91025B3302125982E0FCA326FC07FA8
:1014A000B3301225982E0FCA426FB07FB330122589
:1014B000982E0FCAB26F90288352982EFEC9C26F21
:1014C000900F003002301D2F052EA10180B2123086
:1014D0000F2F426F032EAB01910E0230122F526F6D
:1014E000032EAC01910F02300C2F212EAA010A2CE1
:1014F0001230032ECB008D58088941401143004320
:10150000252EA101D46F8F5200433A89002E10433B
:101510001043610EFB2F032EA001111A022F02258A
:10152000212EA001EB6F005FB82E915210300230D7
:10153000955652424B0EFC2F8D5488829356804212
:101540005342404242868354C02EC242002EA352D0
:101550000051524047401A25012E97008FBE7286D7
:10156000FB7F0B307CBFA5501008DFBA7088F8BF36
:10157000CB42D37F6CBBFCBBC50A907F1B7F0B4368
:10158000C0B2E57FB77FA67FC47F902E1CB7072E21
:10159000D200C0B20B2F9752012ECD00827F982E21
:1015A000BBCC0B30372ED200826F906F1A2500B261
:1015B0008B7F142FA6BD25BDB6B92FB980B2D4B08C
:1015C0000C2F99549B560B300B2EB100A1589B4207
:1015D000DB426C092B2EB1008B42CB42867F738499
:1015E000A756C30839520550727F637F982EC2C038
:1015F000E16F626FD10A012ECD00D56FC46F726F9B
:1016000097529D5C982E06CD236F906F9952C0B271
:1016100004BD5440AFB94540E17F0230062FC0B24F
:101620000230032F9B5C12309443854303BF6FBB92
:1016300080B3202F066F2601166F6E034542C090BF
:10164000292ECE009B52142F9B5C002E9341864185
:10165000E304AE0780AB042F80910A2F866F730FCF
:10166000072F836FC0B2042F544245421230042C1E
:101670001130022C1130113002BC0FB8D27F00B2F1
:101680000A2F012EFC00052EC701101A022F212E51
:10169000C701032D022C01300130B06F982E95CF79
:1016A000D16FA06F982E95CFE26F9F52012ECE0082
:1016B000824050420C2C42421130232ED200013085
:1016C000B06F982E95CFA06F0130982E95CF002E39
:1016D000FB6F005FB82E83860130003094402418E1
:1016E0000600530E4F02F92FB82EA952002E60406B
:1016F00041400DBC98BCC02E010A0FB8AB52533C00
:10170000524040404B00821626B901B841401008B3
:1017100097B80108C02E11300108438625400440C7
:10172000D8BE2C0B2211544203804B0EF62FB82E3C
:101730009F501050AD52052ED300FB7F002E13405A
:101740009342410EFB2F982EA5B7982E87CF012EDE
:10175000D90000B2FB6F0B2F012E69F7B13F0108D2
:101760000130F05F232ED900212E69F7802E7AB741
:10177000F05FB82E012EC0F8032EFCF51554AF56BD
:1017800082080B2E69F7CB0AB1588090DDBE4C0859
:101790005FB959228090072F0334C308F23A0A0830
:1017A0000235C0904A0A4822C02E232EFCF5105064
:1017B000FB7F982E56C7982E49C31030FB6FF05F01
:1017C000212ECC00212ECA00B82E032ED30016B82D
:1017D00002344A0C212E2DF5C02E232ED30003BC3B
:1017E000212ED500032ED50040B21030212E7700D7
:1017F0000130052F052ED8008090012F232E6FF584
:10180000C02E212ED90011308108012E6AF7713FB8
:1018100023BD0108020AC02E212E6AF730250030B0
:10182000212E5AF51050212E7B00212E7C00FB7FAB
:10183000982EC3B74030212ED400FB6FF05F0325F4
:10184000802EAFB7802E00C1802E00C1802E00C137
:10185000802E00C1802E00C1802E00C1802E00C1CC
:10186000802E00C1802E00C1802E00C1802E00C1BC
:10187000802E00C1802E00C1802E00C1802E00C1AC
:10188000012E5DF708BC80AC0EBB022F0030410476
:101890008206C0A40030112F40A9032F40910D2FC4
:1018A00000A70B2F80B3B358022F90A1261320233B
:1018B00080901030012FCC0E002F0030B82EB55084
:1018C000180808BC88B60D17C6BD56BCB758DABA9A
:1018D00004011D0A1050053032254503FB7FF63008
:1018E0002125982E37CA16B59ABC06B880A8410A99
:1018F0000E2F8090022F2D50480F092FBFA0042FCC
:10190000BF90062FB754CA0F032F002E022CB752D8
:101910002D52F233982ED9C0FB6FF137C02E01083B
:10192000F05FBF56B954D040C4400B2EFDF3BF52F8
:101930009042944295420530C1500F8806400441C0
:101940009642C54248BE73300D2ED8004FBA84422D
:10195000034281B3022F2B2E6FF5062D052E77F74C
:10196000BD569308252E77F7BB54252EC2F5072EBA
:10197000FDF34230B433DA0A4C00272EFDF3434026
:10198000D43FDC084342002E002E43402430DC0AC2
:1019900043420480032EFDF34A0A232EFDF36134F3
:1019A000C02E0142002E60501A257A86E07FF37F18
:1019B0000325C3524184DB7F3330982E16C21A258B
:1019C0007D82F06FE26F32251640944026018540FB
:1019D0008E17C4426E039542410EF42FDB6FA05F59
:1019E000B82EB051FB7F982EE80D5A25982E0F0E79
:1019F000CB583287C47F65896B8DC55A657FE17F7F
:101A0000837FA67F747FD07FB67F947F1730C752C5
:101A1000C954517F002E856F427F002E5141458170
:101A2000424113403B8A00404B04D006C0AC857F46
:101A3000022F02305104D306418405305D02C916DD
:101A4000DF08D3008D02AFBCB1B9590A656F1143ED
:101A5000A1B4524153410143347F657F2631E56F84
:101A6000D46F982E37CA326F756F83404241237FFF
:101A7000127FF63040255125982E37CA146F200565
:101A8000706F256F6907A26F316F0B3004429B4264
:101A90008B425542327F40A9C36F717F0230D040E4
:101AA000C37F032F4091152F00A7132F00A4112FE0
:101AB00084BD982E79CA556FB75454418200F33FC4
:101AC0004541CB02F630982E37CA356FA46F41439B
:101AD000032C0043A46F356F1730426F516F934052
:101AE00042820041C3000343517F002E9440414194
:101AF0004C02C46FD156630E746F5143A57F8A2F79
:101B0000092ED80001B3212FCB58906F1341B66F27
:101B1000E47F002E9141144092411540172E6FF53D
:101B2000B67FD07FCB7F982E000C0715C26F140BA9
:101B3000292E6FF5C3A3C18FE46FD06FE62F143049
:101B4000052E6FF5140B292E6FF5182DCD56043286
:101B5000B56F1C0151415241C340B57FE47F982EBF
:101B60001F0CE46F218700430432CF545A0EEF2F2D
:101B70001554092E77F7220B292E77F7FB6F505E4D
:101B8000B82E1050012ED40000B2FB7F512F01B2AD
:101B9000482F02B2422F0390562FD75279804240ED
:101BA000818400404242982E930CD954D750A140D2
:101BB00098BD82403E82DA0A44408B16E3005342CD
:101BC000002E43409A025242002E414015544A0EC4
:101BD0003A2F3A8200304140212E850F40B20A2F21
:101BE000982EB10C982E450E982E5B0EFB6FF05F71
:101BF0000030802ECEB7DD52D35442424F84733032
:101C0000DB5283421B306B422330272ED700372E06
:101C1000D400212ED6007A84172C42423030212E57
:101C2000D400122D21300030232ED400212E7BF73A
:101C30000B2D1730982E510CD5500C8272302F2E50
:101C4000D400252E7BF74042002EFB6FF05FB82EAC
:101C500070500A253986FB7FE1326230982EC2C46B
:101C6000B556A56FAB08916F4B08DF56C46F2309BB
:101C70004DBA93BC8C0BD16F0B09CB52E15E56422F
:101C8000AF094DBA23BD940AE56F68BBEB08BDB937
:101C900063BEFB6F5242E30AC02E4342905FD150B5
:101CA000032E25F3134000409BBC9BB408BDB8B97C
:101CB00098BCDA0A08B68916C02E190062021050C4
:101CC000FB7F982E810D012ED40031300804FB6F6C
:101CD0000130F05F232ED600212ED700B82E012E22
:101CE000D700032ED600480E012F802E1F0EB82ECF
:101CF000E350213401428230C132252E62F50100C9
:101D0000223001404A0A0142B82EE354F03B83409E
:101D1000D808E5528342003083305042C432272E27
:101D200064F5940050424042D33F84407D82E308F2
:101D300040428342B82EDD52003040427C86B95288
:101D4000092E700FBF54C442D3865440554094426C
:101D50008542212ED7004240252EFDF3C0427E82CF
:101D6000052E7D0080B2142F052E890027BD2FB9C6
:101D70008090022F212E6FF50C2D072E710F14303D
:101D80001C09052E77F7BD5647BE9308940A252EE9
:101D900077F7E75450424A0EFC2FB82E50500230CD
:101DA0004386E550FB7FE37FD27FC07FB17F002E6B
:101DB000414000404804982E74C01EAAD36F1430CE
:101DC000B16FE322C06F5240E46F4C0E1242D37FDA
:101DD000EB2F032E860F40901130032F232E860FFA
:101DE000022C0030D06FFB6FB05FB82E4050F17FF7
:101DF0000A253C86EB7F41332230982EC2C4D36F34
:101E0000F430DC094758C26F9409EB586ABBDC0810
:101E1000B4B9B1BDE95A950821BDF6BF770B51BEE3
:101E2000F16FEB6F52425442C02E4342C05F50509C
:101E3000F55031301142FB7F7B300B421130028074
:101E4000233301420300072E8003052ED3002352C3
:101E5000E27FD37FC07F982EB60ED16F080A1A2575
:101E60007B86D07F01331230982EC2C4D16F080A0E
:101E700000B20D2FE36F012E80035130C786232E51
:101E800021F208BCC042982EA5B7002E002ED02EFD
:101E9000B06F0BB8032E1B00081AB07F7030042FF0
:101EA000212E21F2002E002ED02E982E6DC0982EBD
:101EB0005DC0ED50982E44CBEF50982E46C3F150A4
:101EC000982E53C73550982E64CF1030982EDC03CF
:101ED0002026C06F02311242AB330B4237800130F3
:101EE0000142F337F752FB504440A20A42428B3181
:101EF000092E5EF7F954E30883421B4223334B005B
:101F0000BC840B40333083420B42E07FD17F982E5C
:101F100058B7D16F803040420330E06FF354043043
:101F2000002E002E0189620EFA2F43421130FB6F02
:101F3000C02E0142B05FC14A00006D570000778E8D
:101F40000000E0FFFFFFD3FFFFFFE5FFFFFFEEE133
:101F5000FFFF7C13000046E6FFFF000000000000CA
:101F60000000000000000000000000000000000071
:101F70000000000000000000000000000000000061
:101F80000000000000000000000000000000000051
:101F900000000000802E00C1802E00C1802E00C1F4
:101FA000802E00C1802E00C1802E00C1802E00C175
:101FB000802E00C1802E00C1802E00C1802E00C165
:101FC000802E00C1802E00C1802E00C1802E00C155
:101FD000802E00C1802E00C1802E00C1802E00C145
:101FE000802E00C1802E00C1802E00C1802E00C135
:101FF000802E00C1802E00C1802E00C1802E00C125
:10200000802E00C1802E00C1802E00C1802E00C114
:10201000802E00C1802E00C1802E00C1802E00C104
:10202000802E00C1802E00C1802E00C1802E00C1F4
:10203000802E00C1802E00C1802E00C1802E00C1E4
:10204000802E00C1802E00C1802E00C1802E00C1D4
:10205000802E00C1802E00C1802E00C1802E00C1C4
:10206000802E00C1802E00C1802E00C1802E00C1B4
:10207000802E00C1802E00C1802E00C1802E00C1A4
:10208000F8B5ADF5006D04000D0016004FF4806149
:1020900000220DF58067380001F092FB68464FF48E
:1020A000806101F0FFFBADB2B6B2754300209FED39
:1020B000680ADFED670A9FED661ADFED651A0021F9
:1020C00009E00DF58062635C665C52F82660761C60
:1020D00042F82360491CA942F3DB00211DE06A4657
:1020E0000DF5806303EB810393ED002AB8EEC22A5D
:1020F00002EE905AF8EEE22A82EE222A02EB8103E7
:1021000083ED002A02EE101AB8EEC22A02EB810219
:10211000D2ED002A02EE220A491CB1F5807FDEDBF7
:10212000002234E0B0EE612A00EE412A22EE022ABB
:10213000F7EE002A72EEC12A62EE812A82EE222A8E
:10214000F4EE420AF1EE10FA20D5F0EE420A100049
:102150001CE0694601EB820393ED002A31EE021A7E
:1021600002EE102AB8EEC22A01EB8201D1ED002A5C
:1021700042EE221AB5EE401AF1EE10FA06D0B7EE92
:10218000002AB4EE421AF1EE10FACBD1521CB2F58D
:10219000807FDEDBC0B20DF5006D01B0F0BDF8B59B
:1021A000DFF89C49DFF89C59642278212800FFF76A
:1021B00067FF2070DFF8900921780278914201D200
:1021C00000782070002000E0401C0100C9B26329A3
:1021D0003DDA002118E000220BE078232278060087
:1021E000F6B25E432E440F00FFB2F65DB242F2D269
:1021F000FF22DFF858690700FFB203FB07F33344FF
:102200000E00F6B29A55491C0A00D2B2772ADBDAE0
:102210000A00D2B20A3A4B2ADFD3782223780A3353
:102220000600F6B256432E440F00FFB2F65DB342ED
:1022300001DAFF2300E00023DFF810690700FFB296
:1022400002FB07F232440E00F6B29355DBE7F1BD14
:10225000000000002DE9F84F62260020DFF8F0189A
:102260000880C8215FF0FF300090DFF8E8482500C3
:10227000009A280001F0A4FAC8215FF0FF30009016
:10228000DFF8D4582F00009A380001F099FAC821DD
:102290000022DFF8C878380001F092FA04E0B1F9C2
:1022A0000000002800D1761F3000C0B2062862DB93
:1022B000DFF89C18B1F9000000285CD17622DFF825
:1022C000A008B0F90000012805D0DFF89808B0F99F
:1022D0000000012803D1DFF8900802880A32DFF8F5
:1022E0008C08B0F90000012809D1DFF88408B0F9A2
:1022F0000000022803D1DFF870080288521D022373
:1023000000E05B1C18001700C0B2FFB2B8422ED22A
:102310007827DFF838C83000C0B2784360449E4662
:102320005FFA8EFE10F80E000028EAD13000C0B22D
:10233000784360449E465FFA8EFE70444078FF28E2
:10234000DFD13000C0B207FB00F70CEB07001F0025
:10235000FFB238448078FF28D3D1DBB23000C0B25E
:1023600024F8103001200880DFF8080806703000DB
:10237000C0B23C2893DADFF8FC6730785A280FDACD
:10238000632007E0317834F811100200D2B224F84B
:102390001210401E3178491C0200D2B29142F1DB8A
:1023A0006222DFF8D4170020088004E0B1F90000B1
:1023B000002800D1521F1000C0B206285DDBB1F921
:1023C0000000002859D10223DFF8B007B0F900005F
:1023D00001280BD0DFF8A807B0F90000012805D0CC
:1023E000DFF8A007B0F90000012803D1DFF8780773
:1023F0000088431F762700E07F1E1800BC46C0B24D
:102400005FFA8CFC604534D25FF0780CDFF83CE773
:102410001000C0B20CFB00F07044B8465FFA88F8B8
:1024200010F808000028E7D11000C0B20CFB00F043
:102430007044B8465FFA88F8404410F8010CFF2851
:10244000DAD11000C0B20CFB00FC0EEB0C00BC4655
:102450005FFA8CFC604410F8020CFF28CCD1FFB26C
:102460001000C0B225F8107001200880DFF81807AE
:1024700002701000C0B23C2898DADFF80C0702782E
:102480005A2A0FDA632207E0037835F81330170071
:10249000FFB225F81730521E03785B1C1700FFB2FD
:1024A000BB42F1DB027833789A4204D20278DFF83B
:1024B00010391A7003E03278DFF804391A70B1F974
:1024C0000010012940F056810078471E00E07F1E71
:1024D0003800C0B2002800F04D813800C0B205EBD2
:1024E0004000B0F902100A313800C0B205EB4000DC
:1024F000B0F902200A3A022A00DA0222772900DB28
:10250000762100E0491E0800C0B282422BDA78230F
:10251000DFF838C63800C0B2584360448E465FFAD0
:102520008EFE10F80E000028ECD13800C0B25843DF
:1025300060448E465FFA8EFE704410F8010CFF284E
:10254000E0D13800C0B203FB00F30CEB03000B003A
:10255000DBB2184410F8020CFF28D3D1C9B23800FE
:10256000C0B225F810103800C0B235F9100010F1D3
:10257000010F40F0F7803800C0B205EB4000B0F921
:10258000020010F1010F00F0ED803800C0B21528F4
:10259000C0F2E8803800C0B2322801DB282100E018
:1025A00014213800C0B2322801DB052200E00222EB
:1025B00000203800C0B2411A002900D50021B846D9
:1025C0000EE03800C0B2292808DB3800C0B205EBA5
:1025D000400040883B00DBB225F81300B8EB02084E
:1025E0004046C0B2814280F2BD803800C0B205EBE7
:1025F0004000B0F902300F333800C0B205EB4000A4
:10260000B0F902C0BCF10F0C4046C0B233381828F4
:102610000ED23800C0B205EB4000B0F902301E33D4
:102620003800C0B205EB4000B0F902C0BCF11E0C8E
:102630004046C0B24C2802DB76235FF0020CDFF884
:102640003C05B0F90000012805D0DFF83405B0F9E9
:10265000000001280ED13800C0B205EB4000B0F9EF
:1026600002305B1D3800C0B205EB4000B0F902C07B
:10267000BCF1050CDFF80C05B0F9000001280ED103
:102680003800C0B205EB4000B0F902300F3338001B
:10269000C0B205EB4000B0F902C0BCF10F0C772BC3
:1026A00000DB7623BCF1020F01DA5FF0020C5FF071
:1026B000FF3E00E05B1E1800C0B284452CDA5FF0DC
:1026C0007809DFF888A44046C0B209FB00F0504406
:1026D0009B465FFA8BFB10F80B000028EAD14046BE
:1026E000C0B209FB00F050449B465FFA8BFB584494
:1026F00010F8010CFF28DDD14046C0B209FB00F9FB
:102700000AEB090099465FFA89F9484410F8020C6F
:10271000FF28CFD1DBB29E461EF1010F3FF451AF2F
:102720003800C0B2401D63280DDA4346DBB2724662
:10273000D2B2791CC9B2FFB205EB47004089C0B2E2
:1027400000F09EFF0CE04346DBB27246D2B2791C29
:10275000C9B2FFB205EB47004088C0B200F090FF5D
:10276000474601203800C0B235F9100010F1010FC2
:102770007FF4ADAEDFF8D803B0F90000012840F0D7
:1027800057813078461E00E0761E3000C0B2002827
:1027900000F04E813000C0B204EB4000B0F90210EE
:1027A0000A393000C0B204EB4000B0F902200A320E
:1027B000772A00DB7622022900DA022100E0491C98
:1027C0000800C0B2904229DA7823DFF88073300025
:1027D000C0B2584338448C465FFA8CFC10F80C00A9
:1027E0000028ECD13000C0B2584338448C465FFA20
:1027F0008CFC60444078FF28E1D13000C0B203FB7C
:1028000000F307EB03000B00DBB218448078FF28CD
:10281000D5D1C9B23000C0B224F810103000C0B217
:1028200034F9100010F1010F40F0FA803000C0B20E
:1028300004EB4000B0F9020010F1010F00F0F0804D
:102840003000C0B21528C0F2EB803000C0B2322890
:1028500001DB282100E014213000C0B2322801DB66
:10286000052200E0022200203000C0B2411A0029F7
:1028700000D5002137000DE03000C0B2292808DB68
:102880003000C0B204EB400040883300DBB224F8D3
:102890001300BF1A3800C0B2814280F2C1803000FC
:1028A000C0B204EB4000B0F902300F3B3000C0B2C0
:1028B00004EB4000B0F902C01CF10F0C3800C0B2AC
:1028C000333818280ED23000C0B204EB4000B0F903
:1028D00002301E3B3000C0B204EB4000B0F902C031
:1028E0001CF11E0C3800C0B24C2802DB02235FF042
:1028F000760CDFF86C02B0F90000012805D0DFF893
:102900006402B0F9000001280ED13000C0B204EB1F
:102910004000B0F902305B1F3000C0B204EB400051
:10292000B0F902C01CF1050CDFF84002B0F900005C
:10293000012814D1DFF83802B0F9000002280ED1C6
:102940003000C0B204EB4000B0F902300F3B300061
:10295000C0B204EB4000B0F902C01CF10F0C022B16
:1029600000DA0223BCF1770F01DB5FF0760C5FF039
:10297000FF3E00E05B1C1800C0B260452ADA5FF041
:102980007808DFF8C8913800C0B208FB00F048446E
:102990009A465FFA8AFA10F80A000028EAD138004D
:1029A000C0B208FB00F048449A465FFA8AFA5044E5
:1029B0004078FF28DED13800C0B208FB00F809EBF0
:1029C000080098465FFA88F840448078FF28D1D103
:1029D000DBB29E461EF1010F3FF44EAF3000C0B295
:1029E000401D63280DDA3B00DBB27246D2B2711C87
:1029F000C9B2F6B204EB46004089C0B200F0CAFD8D
:102A00000CE03B00DBB27246D2B2711CC9B2F6B226
:102A100004EB46004088C0B200F0BCFD3E0001203F
:102A20003000C0B234F9100010F1010F7FF4ACAEE9
:102A3000632139E00020DFF8242122F8110032E080
:102A4000DFF83025002022F8110035F9110010F1CF
:102A5000010FEFD034F9110010F1010FEAD034F971
:102A6000110035F911309842E4DA35F91100762871
:102A7000E0DA34F911000328DCDBDFF844030170ED
:102A800035F8113034F811001B1A22F8113035F9DD
:102A9000110034F911201018022290FBF2F0DFF837
:102AA000BC2022F81100491E0129C9DABDE8F18FC6
:102AB00010B40020DFF8C024002010609FED1E0A33
:102AC000DFED1D0A632122E0DFF89030080000B23C
:102AD00033F91000002819D0DFF8A0040C0024B24C
:102AE00033F9143001EE103AB8EEC11A0B001BB2E4
:102AF00000EB8303D3ED001A01EE210A0B001BB299
:102B000000EB830090ED001A70EE810A491E080068
:102B100000B20128D8DA80EE200A82ED000A9FED8B
:102B2000070AD2ED000A30EE600ADFF8700980ED86
:102B3000000A10BC70470000000000000000704256
:102B400020AE0208B06C0208C63D0208D03D020863
:102B5000CCAD020888A6020850A7020818A80208EF
:102B6000EAAD020800AE0208BC3D0208FAAD020858
:102B7000D6AD020821AE0208CEAD0208E8AD0208CB
:102B8000FEAD0208FCAD020822AE020830B40021FE
:102B900000E0491C14294EDADFF8042900201080D7
:102BA00000231DE07824DFF8FC5804FB01F02844E2
:102BB000C05C002813D104FB01F02844184440787D
:102BC000FF280CD104FB01F405EB040018448078C5
:102BD000FF2804D101201080DFF8A80903805B1CC6
:102BE000752B24DAB2F900000028DBD0B2F900001E
:102BF0000128F4D17824DFF8AC5804FB01F0284414
:102C0000C05C0028EBD104FB01F028441844407854
:102C1000FF28E4D104FB01F405EB0400184480789C
:102C2000FF28DCD102201080DFF85C090380B2F9B4
:102C300000000228ADD1502100E0491C63294EDA82
:102C4000DFF848290020108000231DE07824DFF8F9
:102C5000545804FB01F02844C05C002813D104FB45
:102C600001F0284418444078FF280CD104FB01F4FB
:102C700005EB040018448078FF2804D1012010805F
:102C8000DFF80C0903805B1C752B24DAB2F9000015
:102C90000028DBD0B2F900000128F4D17824DFF855
:102CA000045804FB01F02844C05C0028EBD104FB6D
:102CB00001F0284418444078FF28E4D104FB01F4D3
:102CC00005EB040018448078FF28DCD10220108036
:102CD000DFF89C090380B2F900000228ADD1002181
:102CE00000E0491C142931DADFF88829002010801F
:102CF0005A2302E0002010805B1E0B2B22DBB2F96E
:102D000000000028F8D17824DFF8985704FB03F07E
:102D10002844405C0028EDD104FB03F0284408441B
:102D200010F8780CFF28E5D104FB03F405EB040050
:102D3000084410F8F00CFF28DCD101201080DFF8E7
:102D400038090380B2F900000128CAD1642100E0EB
:102D5000491C772931DADFF82429002010805A2312
:102D600002E0002010805B1E0B2B22DBB2F900007A
:102D70000028F8D17824DFF82C5704FB03F028440E
:102D8000405C0028EDD104FB03F02844084410F80F
:102D9000780CFF28E5D104FB03F405EB040008449C
:102DA00010F8F00CFF28DCD101201080DFF8AC090E
:102DB0000380B2F900000128CAD130BC704700007E
:102DC00023AE020870B5DFF8981900200880DFF8FC
:102DD0009429002010800020DFF89838B3F9000013
:102DE000012846D1DFF894080488DFF8B40600888B
:102DF0000443DFF8740900880443DFF87009008891
:102E0000044324B2002C34D1DFF86409B0F9000087
:102E100000282ED1DFF86008B0F900300A3B00E04E
:102E20005B1E102B6FDB002402E000200880641C76
:102E3000752C19DA7825DFF86C6605FB03F0304451
:102E4000005D00280ED105FB03F03044204440789B
:102E5000FF2807D105FB03F506EB05002044807829
:102E6000FF28E2D001200880B1F900000128D7D165
:102E700049E0B3F90000002845D1DFF80008B0F9B7
:102E8000000001283FD1DFF818060388DFF8D808D2
:102E900000880343DFF8D40800880343DFF8D00834
:102EA000008803431BB2002B2DD1DFF8B008B0F926
:102EB00000300A3B00E05B1E102B24DB002402E004
:102EC00000201080641C752C19DA7825DFF8D46591
:102ED00005FB03F03044005D00280ED105FB03F034
:102EE000304420444078FF2807D105FB03F506EB6A
:102EF000050020448078FF28E2D001201080B2F93C
:102F000000000128D7D1B1F90000012816D1DFF85F
:102F1000684762231A48B0F8C4000200D2B2208881
:102F20000100C9B2012000F0BFFA20880300DBB223
:102F300001220021012000F0B7FA19E0B2F90000E7
:102F4000012815D1DFF8144862230D48B0F8C400F9
:102F50000200D2B220880100C9B2772000F0A4FAA2
:102F600020880300DBB277220021772000F09CFA52
:102F700070BD0000E0A8020850AD0208943B0208B2
:102F800018A8020870B5DFF81845B4F90000022847
:102F90002FD1DFF8F805B0F90000022829D1DFF8B9
:102FA000D406B0F90000012823D1DFF8D00601884B
:102FB000DFF8BC0700880143DFF8AC070088014355
:102FC000DFF8B0070088014309B2002911D1DFF80A
:102FD000A006B0F90000DFF8B815B1F90010401AEA
:102FE00000F063FC292804DB0120DFF88C1708803F
:102FF00034E0B4F90000022830D1DFF89005B0F9D0
:10300000000002282AD1DFF86C06B0F90000002881
:1030100024D1DFF86806B0F9000001281ED1DFF8DE
:1030200050070188DFF8440700880143DFF84807AC
:103030000088014309B2002910D1DFF83406B0F945
:103040000000DFF84C15B1F90010401A00F02DFC1B
:10305000292803DB0120DFF81C170880DFF8184758
:10306000B4F9000001284DD1DFF81007B0F90010C5
:10307000491F26E0521E042A22DB7823DFF824545D
:1030800003FB02F02844405C0028F3D103FB02F06C
:103090002844084490F87800FF28EBD103FB02F3A2
:1030A00005EB0300084490F8F000FF28E2D1DFF8B8
:1030B000D00602800088D0F16400DFF8C8261080B6
:1030C000491E292901DB6322D5E7DFF8BC56DFF86A
:1030D000B466B6F90000B5F90010401A00F0E5FB3F
:1030E00008280CDBDFF8A4060188491C0180B0F930
:1030F0000000022803D10120DFF8941608803088F0
:10310000288052E0DFF86C06B0F9000001284CD1AD
:10311000DFF86806B0F900100A3126E0521E042AD2
:1031200022DB7823DFF87C5303FB02F02844405C69
:103130000028F3D103FB02F02844084490F87800FB
:10314000FF28EBD103FB02F305EB0300084490F8E2
:10315000F000FF28E2D1DFF83C0602800088D0F1C1
:103160006400DFF834261080491C642901DA6322E8
:10317000D5E7DFF82856DFF82066B6F90000B5F984
:103180000010401A00F091FB28280CDBDFF8FC054A
:103190000188491C0180B0F90000022803D10120F8
:1031A000DFF8FC15088030882880DFF8E455B5F991
:1031B0000000012813D1DFF8EC0590ED000ADFEDE7
:1031C000910AB4EE600AF1EE10FA08D50021016010
:1031D00000F08BFF0120DFF89015088018E0DFF881
:1031E000C005B0F90000012812D1DFF8B80590ED54
:1031F000000ADFED850AB4EE600AF1EE10FA07DB93
:103200000021016000F071FF0120DFF860150880E7
:10321000B4F90000012831D163200DE0DFF88815F2
:103220000200D2B231F81210891EDFF880250300A7
:10323000DBB222F813101FE00100C9B2152956DBDA
:10324000B5F900100129E9D1DFF86015DFF8602534
:103250000300DBB232F81320921C0300DBB221F82A
:1032600013200200D2B231F91220012A04DA01221D
:103270000300DBB221F81320401EDDE7DFF8F40481
:10328000B0F90000012832D163202CE0DFF82015CE
:103290000200D2B231F81210DFF810250300DBB2C1
:1032A00022F813101EE0DFF8F814B1F9001001291C
:1032B000ECD1DFF8F814DFF8F0240300DBB232F8C9
:1032C0001320D21C0300DBB221F813200200D2B27B
:1032D00031F91220521E772A04D377220300DBB281
:1032E00021F81320401E0100C9B22929DBDADFF8DA
:1032F0007814B1F90000012824D163200CE0DFF834
:10330000A8240300DBB232F81320DFF8A034060053
:10331000F6B223F81620401E0200D2B21F2AEEDABF
:10332000DFF890241388DFF89004B0F90000DFF88C
:103330008C64B6F900603018022690FBF6F0C318D2
:10334000138029E0DFF82404B0F90000012823D11C
:1033500063200CE0DFF858240300DBB232F81320BE
:10336000DFF848340600F6B223F81620401E0200AB
:10337000D2B2332AEEDADFF83C241388DFF83804BF
:10338000B0F90000DFF83464B6F9006030180226A6
:1033900090FBF6F0C3181380DFF81804B0F9002092
:1033A00040F2F5139A422CDB784AB2F90020012A48
:1033B00027D10022228000222A8000220A800021B8
:1033C000DFF8C02311800021DFF8BC231180002129
:1033D000DFF8A02311800021DFF8C4231180002131
:1033E000DFF8882311800021DFF8AC231180002151
:1033F000DFF8A82311800021DFF89023118000213D
:10340000018070BD0000AAC30100AA4380B5DFF8A7
:1034100050030188DFF84C030088014309B20029FA
:1034200027D11F48B0F9000001281ED15748B0F934
:103430000000012819D18F48B0F90000012814D1EB
:103440008E48B0F9000001280FD18B48B0F9000078
:1034500029280ADBDFF80403B0F90000292804DB7F
:103460000120DFF80C13088003E00020DFF80013D0
:103470000880DFF8FC02B0F9000001280CD16223BB
:10348000DFF82803B0F8C4000200D2B200213D48A2
:103490000088C0B200F008F801BD000054AD020879
:1034A000D0AD0208D03D0208F0B404002000C0B244
:1034B000772801DB772404E02000C0B2002800D187
:1034C00000240800C0B2632801DB632104E0080087
:1034D000C0B2002800D100211000C0B2772801DB63
:1034E000772204E01000C0B2002800D100221800AA
:1034F000C0B2632801DB632304E01800C0B20028D7
:1035000000D100230E00180005003700EDB2FFB215
:10351000BD4202D23500060028002AE02F00FFB28B
:10352000002F1ED100251CE03700FFB20D00EDB2C8
:103530007F1B94465FFA8CFC2500EDB2BCEB050CBA
:103540000CFB07F79C465FFA8CFC0D00EDB2BCEB60
:10355000050C97FBFCF565192F00FFB2782FDDDB1A
:103560007825EDB2914FB4465FFA8CFC27F81C50D9
:10357000761C05003700EDB2FFB2BD42D4D2F0BCDC
:1035800070470000D2AD0208D4AD0208D6AD0208E3
:10359000D8AD0208F0B404002000C0B2772801DBE7
:1035A000772404E02000C0B2002800D100240800E5
:1035B000C0B2632801DB632104E00800C0B2002828
:1035C00000D100211000C0B2772801DB772204E08F
:1035D0001000C0B2002800D100221800C0B2632839
:1035E00001DB632304E01800C0B2002800D10023EF
:1035F0000E00180005003700EDB2FFB2BD4202D246
:103600003500060028002AE02F00FFB2002F1ED14F
:1036100000251CE03700FFB20D00EDB27F1B944681
:103620005FFA8CFC2500EDB2BCEB050C0CFB07F738
:103630009C465FFA8CFC0D00EDB2BCEB050C97FBD1
:10364000FCF565192F00FFB2782FDDDB7825EDB290
:10365000574FB4465FFA8CFC27F81C50761C0500C7
:103660003700EDB2FFB2BD42D4D2F0BC70470000CB
:10367000DAAD0208DCAD0208DEAD0208E0AD0208FA
:10368000F0B404002000C0B2772801DB772404E006
:103690002000C0B2002800D100240800C0B2632876
:1036A00001DB632104E00800C0B2002800D1002142
:1036B0001000C0B2772801DB772204E01000C0B20E
:1036C000002800D100221800C0B2632801DB632368
:1036D00004E01800C0B2002800D100230E0018003A
:1036E00005003700EDB2FFB2BD4202D23500060040
:1036F00028002AE02F00FFB2002F1ED100251CE079
:103700003700FFB20D00EDB27F1B94465FFA8CFCD0
:103710002500EDB2BCEB050C0CFB07F79C465FFAED
:103720008CFC0D00EDB2BCEB050C97FBFCF56519AC
:103730002F00FFB2782FDDDB7825EDB21A4FB446AB
:103740005FFA8CFC27F81C50761C05003700EDB2A0
:10375000FFB2BD42D4D2F0BC70470000E2AD020817
:10376000E4AD0208E6AD0208FEAD020800AE0208B4
:1037700004AE0208EAAD0208E8AD0208BC3D02084A
:10378000ECAD0208F0AD0208F2AD0208F8AD020897
:10379000FAAD0208EEAD0208F4AD0208F6AD02087B
:1037A000FCAD0208FCAC020850A7020818A80208E9
:1037B00088A6020802AE0208C4AD0208C6AD02081F
:1037C00062F30F2262F31F42401810F0030308D087
:1037D000C91A1FD3DB0748BF00F8012D28BF20F806
:1037E000022D130030B414461546103928BF20E9C5
:1037F0003C00FAD8490728BF20E90C0048BF40F830
:10380000042D890028BF20F8022D48BF00F8012DA3
:1038100030BC7047C91818BF00F8012DCB0728BF6E
:1038200000F8012D7047F0B402461068956813182F
:10383000506803EB5004C00748BF4D44A3422DD04D
:1038400013F8016B16F0030004BF13F8010BC01C42
:1038500031090F2907D113F8011B0F3103E013F8C9
:10386000017B05F8017B401EF9D10029E6D013F851
:10387000010BC6F38106032E08BF13F8016B00EBA2
:103880000620404228440026B71E8F421EBF10F873
:10389000017B05F8017B761CF6D1CFE7F0BC02F185
:1038A0000C007047002200F08BBC002848BF40424B
:1038B00070470268531C036011707047DFED7C0A8B
:1038C000002002E070EE800A401C5028FAD39FEDE1
:1038D000790A80EE800A704710B52DED068B00F056
:1038E000F0FC9FED73AADFED72AA9FED718ADFED08
:1038F000708A9FED6F9ADFED6E9A00245BE000F016
:10390000FFFCDFF83008DFF83018B1F9001000EEE6
:10391000101AB8EEC00AD0ED010A80EE200A30EE8F
:103920000AAADFF81818B1F9001000EE101AB8EE64
:10393000C00AD0ED000A80EE200A70EE2AAADFF855
:103940000018B1F9001000EE101AB8EEC00AD0ED60
:10395000010A80EE200A30EE088ADFF8E817B1F994
:10396000001000EE101AB8EEC00AD0ED000A80EE8A
:10397000200A70EE288ADFF8D017B1F9001000EEA7
:10398000101AB8EEC00AD0ED010A80EE200A30EE1F
:10399000099ADFF8B817B1F9001000EE101AB8EE66
:1039A000C00AD0ED000A80EE200A70EE299A142099
:1039B00000F0D2FD641C502CA1DB9FED3E0A8AEE84
:1039C000000ADFF88C0780ED000A9FED3A0A8AEEC4
:1039D000800ADFF8800780ED000A9FED360A88EE46
:1039E000000ADFF8740780ED000A9FED320A88EEC6
:1039F000800ADFF8680780ED000A9FED2E0A89EE45
:103A0000000ADFF85C0780ED000A9FED2A0A89EEC4
:103A1000800ADFF8500780ED000ABDEC068B10BD70
:103A2000D0ED000A90ED041A70EE810AC0ED010A93
:103A3000D0ED010A90ED051A70EE810A90ED011AA1
:103A4000C1EE200AC0ED030AD0ED020A30EE600A92
:103A5000D0ED030A90ED021A00EE201A80ED021A52
:103A6000B7EE000AD0ED030A30EE600AD0ED010A8D
:103A700020EE200A80ED000A90ED020A704781B026
:103A8000F6EE000A60EE200A8DED000A0098DFF8DD
:103A9000D816B1EB600100919DED000A60EE800A3E
:103AA000B7EE081A00EEC01A21EE000A01B0704706
:103AB000000000000000A0422DE9F0412DED068B32
:103AC000140091ED008A91ED01AAD1ED02AAD0ED8A
:103AD000009A90ED019AD0ED028A28EE080A0AEECB
:103AE0000A0A0AEEAA0AFFF7CAFFB0EE401A28EE49
:103AF000010A6AEE010A2AEE811AB0EE008ADFF8A6
:103B00006C56DFF86C66DFF86C76DFF86C86D8ED03
:103B1000001A97ED002A61EE821A96ED002AD5ED83
:103B2000002A42EE621A61EE881A96ED002AD8ED5C
:103B3000002A22EE222AD5ED002A97ED003A02EE65
:103B4000832A22EE082AD6ED002A96ED003A62EE8C
:103B5000832A98ED003AD8ED003A43EE632A95EDBA
:103B6000003AD5ED003A43EE632A97ED003AD7EDDF
:103B7000003A43EE232A20EEA23A01EE423A21EE29
:103B8000211A00EE621A20EE022A00EEE12ADFF886
:103B9000EC059FED5C0AD0ED000A43EE000AC0ED93
:103BA000000ADFF8DC15D1ED000A41EE000AC1ED94
:103BB000000ADFF8D025D2ED000A42EE000AC2ED7D
:103BC000000AF0EE081AD0ED000A43EE210A70EE6A
:103BD000A90AD1ED002A41EE212A32EE891AD2ED4E
:103BE000002A42EE212A72EEA81A98ED002A22EE4F
:103BF000602AD5ED002A02EEC12AD7ED002A02EE96
:103C0000E12AD6ED008A42EE008A96ED002A22EEE5
:103C1000202AD5ED002A02EEA12AD7ED002A02EED5
:103C2000C12A98ED009A02EE009A96ED002A22EE43
:103C3000012AD8ED002A02EEE12AD7ED002A02EE91
:103C4000A02AD5ED009A42EE009A96ED002A62EE87
:103C5000211A98ED002A42EE011A95ED001A41EE64
:103C6000601A97ED00AA01EE80AA28EEA80A09EED4
:103C7000090A09EEA90A0AEE0A0AFFF700FF68EE30
:103C8000800AC6ED000A69EE000AC8ED000A69EE76
:103C9000800AC5ED000A2AEE000A87ED000A96EDBB
:103CA000000AD6ED000A60EE200A98ED000A98EDB1
:103CB000001A40EE010A95ED000A95ED001A40EE5B
:103CC000410A97ED000A97ED001A40EE410A98ED7F
:103CD000000A95ED001A20EE010A96ED001AD7EDC4
:103CE000001A01EE210A20EE080A00F0BFFCDFED09
:103CF000E10A20EE200A84ED000ABDEC068BBDE847
:103D0000F08100006F12833AF8B52DED028B8AB076
:103D1000DFF87444DFF81C54DFF81C04B0F900101D
:103D200000EE101AB8EEC00AD5ED010A80EE200AA6
:103D3000DFF81C14D1ED000A30EE600A84ED000AB1
:103D4000B0F9000000EE100AB8EEC00AD5ED010A85
:103D500080EE200ADFF83404FFF762FE84ED000AEB
:103D600094ED000ABDEEC00AB8EEC00A84ED000A68
:103D7000DFF81C64DFF8C803B0F9001000EE101A79
:103D8000B8EEC00AD5ED010A80EE200ADFF8C813AC
:103D9000D1ED000A30EE600A86ED000AB0F90000AD
:103DA00000EE100AB8EEC00AD5ED010A80EE200A36
:103DB000DFF8E003FFF734FE86ED000A96ED000A17
:103DC000BDEEC00AB8EEC00A86ED000ADFF8C8737F
:103DD000DD48B0F9001000EE101AB8EEC00AD5EDBB
:103DE000010A80EE200ADE49D1ED000A30EE600AB9
:103DF00087ED000AB0F9000000EE100AB8EEC00A24
:103E0000D5ED010A80EE200AE448FFF709FE87EDB0
:103E1000000A97ED000ABDEEC00AB8EEC00A87EDB1
:103E2000000AC648B0F9000000EE100AB8EEC00A59
:103E3000D5ED000A80EE200AC648D0ED000A30EE2B
:103E4000600A8DED000ABF48B0F9000000EE100ACC
:103E5000B8EEC00AD5ED000A80EE200ABF48D0EDCA
:103E6000000A30EE600A8DED010AB848B0F9000092
:103E700000EE100AB8EEC00AD5ED000A80EE200A66
:103E8000B848D0ED000A30EE600A8DED020A9FEDD1
:103E9000A40AD4ED000A60EE800ACDED030AD6ED47
:103EA000000A60EE800ACDED040AD7ED000A20EE8C
:103EB000800A8DED050ABA4C2078002840F0CC80AD
:103EC000B84DDDED020A9DED010A00F0CFFB85ED56
:103ED000000A9DED010ADDED010A20EE200ADDED6C
:103EE000020A9DED021A00EE810A00F0F5FBF0EEE9
:103EF000400AAD4E9DED000AB1EE400A00F0B6FB5F
:103F000086ED000A95ED000AF0EE000A80EE200A28
:103F100010EE100A00F0F0FB41EC100B00F013FC67
:103F2000B0EE408AF0EE608A96ED000AF0EE000AEC
:103F300080EE200A10EE100A00F0DEFB41EC100BC0
:103F400000F001FC51EC100B53EC182B00F008FCB6
:103F500000F0DCFC8649086095ED000AF0EE000AEE
:103F600080EE200A10EE100A00F0C6FB41EC100BA8
:103F700000F0EFFBB0EE408AF0EE608A96ED000AAA
:103F8000F0EE000A80EE200A10EE100A00F0B4FBFA
:103F900041EC100B00F0D7FB51EC100B53EC182B3D
:103FA00000F0DEFB00F0B2FC7349086095ED000AFA
:103FB000F0EE000A80EE200A10EE100A00F09CFBE2
:103FC00041EC100B00F0BFFBB0EE408AF0EE608ACF
:103FD00096ED000AF0EE000A80EE200A10EE100ABC
:103FE00000F08AFB41EC100B00F0B3FB51EC100B1E
:103FF00053EC182B00F0B4FB00F088FC5B49086020
:1040000095ED000AF0EE000A80EE200A10EE100A8C
:1040100000F072FB41EC100B00F09BFBB0EE408A0D
:10402000F0EE608A96ED000AF0EE000A80EE200ABB
:1040300010EE100A00F060FB41EC100B00F089FB61
:1040400051EC100B53EC182B00F08AFB00F05EFCD7
:10405000484908600120207006AA694603A8FFF7B6
:104060002BFD0598514908609DED060A0AB0BDEC8C
:10407000028BF1BDE12E6542017A002908D080ED66
:10408000000A80ED010A0021017290ED000A24E08F
:10409000D0ED010A70EE600A9FED221AF4EE410A9B
:1040A000F1EE10FA04DB9FED201A70EE810A0AE0AF
:1040B0009FED1E1AF4EE410AF1EE10FA03D59FEDC2
:1040C0001C1A70EE810A90ED001A71EE200AC0ED04
:1040D000000A80ED010A90ED000A704780B5FFF7F5
:1040E00013FE3348FFF7C8FF01BD80B5FFF7F6FFA9
:1040F000304880ED000A01BD80B5FFF7EFFF2D4885
:10410000D0ED000A30EE600A01BD80B52A48006893
:10411000002804D0FFF7F0FF284880ED000A01BD19
:1041200035FA8E3C010034430000B4C3000034C3B0
:104130000000B443283D020810AE020816AE020883
:1041400012AE020818AE020814AE02081AAE020837
:1041500000AD020804AD020808AD02080CAD02086B
:1041600010AD020814AD0208DF59375F20AD020818
:10417000843B020824AD02081CAD020828AD0208E9
:104180002CAD020830AD020838AD02083C3B0208F5
:104190003CAD0208543B020840AD02086C3B0208EB
:1041A0001FAE020844AD020848AD020834AD020853
:1041B000883B02084CAD0208383B0208FCAC020800
:1041C00000B500BF130096469446103928BFA0E8FA
:1041D0000C50FAD85FEA417C28BF0CC048BF40F8B9
:1041E000042BC90728BF20F8022B48BF00F8012B79
:1041F00000BD000080B50A000121854B1960D2B2D4
:104200000100C9B2032000F021FF012081490860AC
:1042100001BD10B5130001227D4C22600A0001008F
:10422000C9B2032000F08AFF01207A49086010BD5E
:1042300080B501000120764A106002236A4651F0E1
:104240008001C9B2032000F0F9FF01207149086024
:104250009DF8010002BD3EB50C00150001216C4A1D
:1042600011606B1C6A4650F080000100C9B2032047
:1042700000F0E4FF012067490860002005E069467E
:10428000014449782170641C401CA842F7D337BD13
:1042900070B50020002500263000461C80B2B0F525
:1042A000807F0ADA0020FFF7C3FF0400012000F03E
:1042B00053F9E4B2242CEFD100E001252800C0B26C
:1042C00070BDE0B5062269460C20FFF7C4FF9DF8DB
:1042D00001009DF8001051EA00214F4801809DF82F
:1042E00003009DF8021051EA00214C4801809DF81E
:1042F00005009DF8041051EA00214948018007BDDE
:10430000E0B5062269461220FFF7A5FF9DF80100DF
:104310009DF8001051EA0021424801809DF80300F9
:104320009DF8021051EA00213F4801809DF80500E8
:104330009DF8041051EA00213C48018007BD3EB5BC
:104340000024142000F008F90420029003200190BA
:10435000032000900323364A0021032000F0F2FFDF
:10436000032301220121902001F08FF90020FFF7A3
:104370005FFFFFF78DFF002807D0E5232D4A2E4968
:10438000002001F082FB01243EE000217C20FFF7A9
:1043900031FF012000F0E0F800215920FFF72AFF4B
:1043A0004FF4005225495E20FFF733FF01215920C9
:1043B000FFF720FF142000F0CFF82120FFF738FF8F
:1043C000012807D0F4231B4A1D49002001F05DFBA2
:1043D000012419E00E217D20FFF70CFFA7214020CA
:1043E000FFF708FFA9214220FFF704FF0221412027
:1043F000FFF700FF134D5FF08B4028600021432042
:10440000FFF7F8FE104868602000C0B23EBD000013
:10441000040931400809314016AE020818AE0208FE
:104420001AAE020810AE020812AE020814AE02085C
:104430008096980018E80810D0EB0810800008104B
:1044400054EC0810283D02086F12834140B2002846
:1044500004D0012808D003280BD00FE0202901D375
:10446000012000E000207047102901D30120FAE765
:10447000F8E7082901D30120F5E7F3E70120F2E787
:1044800070B505000E0014006400641C31002800A3
:1044900040B2FFF7DBFF012801D101200EE0280028
:1044A00040B200280DD1B4F5807F08D2674800EBF8
:1044B0008600016864F30F210160002070BD0120B7
:1044C000FCE76DB2012D0CD1B4F5803F07D26048F6
:1044D00000EB8600016864F317210160EDE701201D
:1044E000ECE70120EAE770B504000D00160031008A
:1044F000280040B2FFF7AAFF012801D101200DE0FA
:104500005449200040B251F820006DB265F30920F3
:1045100066F3070064B241F82400002070BD38B58E
:1045200004000D002900200040B2FFF78FFF012892
:1045300001D101200FE04849086850F0004050F0D8
:10454000407050F47F0064B264F3092065F3070003
:1045500008600868002032BDF8B504004FF4FA5036
:1045600044433E4D3E4E00212878C001304401F0C6
:10457000D3FB14E02878C001304401F0CFFBB842EF
:10458000F8D3384F3C192878C001304401F0C6FBFD
:104590003F1839002878C001304401F0BDFB4CF2CF
:1045A0005137BC42E6D22878C001304401F0B6FB56
:1045B0008442F8D2F1BD38B594B0502100226C4647
:1045C0002000FFF7FDF800220121274890F90000A4
:1045D000FFF789FF092200210120FFF751FF002189
:1045E0000120FFF79CFF5FF0FF30009000208DF866
:1045F000040000208DF8050000208DF80600002042
:104600008DF8080003208DF844000120129001204D
:104610008DF80700114C124D69462078C0012844DE
:1046200001F0A8FA2078C001284401F06BFB0021BA
:104630002078C001284401F06FFB2078C001284495
:1046400001F07CFB15B030BD000000000010004000
:1046500000140040000C004000040040CE3D020861
:1046600000003940B03CFFFFCD3D020852EC101A6B
:10467000B0EEC00AC80F49005200F0EEE00A28BFB1
:104680000C3011F1807F38BF12F1807F0CD28A424A
:1046900038BF80F00400124214D034BF80EE800A8C
:1046A00080EE200A01F050BB11F1807F08BF80F03E
:1046B000040098BF12F1807F08D88A4214BF0022FC
:1046C0004FF07E5200EE102A01F03EBB6FF0004129
:1046D00000EE101A70470000B5EEC00AF1EE10FAB5
:1046E00002D4B1EEC00A70476FF0004C00EE10CA61
:1046F000AFF3008070470000C0F3C75181B1FF29BC
:1047000006D0C110400721F0E04101F1605170472F
:1047100041020CBF40F4E0016FF0004100207047FF
:1047200000F0004100020AD0B0FA80FC00FA0CF060
:1047300001F16051A1EB0C5101EBD0214005704714
:1047400041EC100B01BD80B551EC100B01F04EFD9A
:10475000F6E780B551EC100B01F04AFDF0E70000E0
:1047600030B540F2FF7C1CEA11541DBF1CEA135502
:10477000644565453FE0641981EA030C6FF35F53BC
:104780000CF0004C43F48013C90241F0004141EAAF
:10479000505EC5021100A5FB020200284FF0000088
:1047A000EEFB01204FF00001E3FB052118BF42F0B2
:1047B0000102401800214941E3FB0E01A4F5806489
:1047C0000D0302D292184041494154F1010470DDB9
:1047D000450872F1004250F1000051EB0451A1F57F
:1047E000801102D441EA0C0130BD40F2FF7E4CEA58
:1047F0000E51002030BD0CEA1355644518BF6545C5
:1048000081EA030C0CF0004C41D050EA410E1CBF71
:1048100052EA430E02E06146002030BD24422C449F
:104820001BD15FEA050EF6D0090302BF0146002046
:10483000AEF1140EB1FA81F5AEEB050401FA05FEF6
:104840000C35C5F1200100FA05F5C8404EEA000E0E
:104850006FF35F5343F480139CE733F00043B3FAE4
:1048600083F504BFB2FA82FE75440B3D641BB5F1BB
:10487000200E2FBF02FA0EF3AB40C5F1200E22FA34
:104880000EFE38BF43EA0E03AA40641C7CE750EAE0
:10489000410E14BF52EA430E6FF000014FF40015B1
:1048A00015EB430F8EBF194615EB410F9DE7B4D8AA
:1048B00030BDD4F10104B4F120050FDAC4F12005B4
:1048C000520828BF42F0010210FA05FE01FA05F570
:1048D0007244E2BFE0402843E1400FE0352C9ADC0F
:1048E000C5F1200452EA400220FA05F218BF42F056
:1048F000010231FA05F0A1400A43002172F10042A1
:1049000050F1000051EB0C0130BD000001F00042FD
:104910008B1AA3F16051B1F5801F0ADBB1F17F6FF3
:104920001FD242EAC102C10071F1004142EB507056
:1049300070470B15C3F10903212B10D2890241EAFC
:10494000905180020128494141F0004121FA03F0D1
:10495000C3F12003994071F10041504170471000AC
:1049600070476FF0000013EB103F5CBF000E42EA8F
:10497000C0507047D0F80803C005C00D704710F54F
:1049800041710A6852F480320A6010F541710A6878
:1049900032F480320A60D0F804037047C0F8401245
:1049A0007047D0F80802C005C00D7047D0F8080263
:1049B000C0F3C030704738B505002800FFF7F1FF9D
:1049C00004002800FFF7F2FF0419002C01D1012098
:1049D00000E00020C0B232BD0068C0F38130002882
:1049E00001D1802000E040207047016851F0004173
:1049F000016070472030026861F39B62026070477B
:104A000080B5FFF7B7FF02BD80B5FFF7B8FF01BD66
:104A100040B2002804D0012808D003280BD00FE0B2
:104A2000202901D3012000E000207047102901D384
:104A30000120FAE7F8E7082901D30120F5E7F3E7B9
:104A40000120F2E7F8B507000D0016001C00290050
:104A5000380040B2FFF7DCFF012801D1012017E048
:104A6000380040B2022816D1B6F5803F11D2202C72
:104A70000FD2DFF8B40700EB85010A6866F317224E
:104A80000A6000EB8500016864F3C7010160002043
:104A9000F2BD0120FCE77FB2032F17D1B6F1807F72
:104AA00012D2202C10D2DFF8840700EB85010A68AF
:104AB00002F0FF0252EA06220A6000EB850001685C
:104AC00064F3C7010160E2E70120E1E70120DFE7CD
:104AD00070B504000D0016003100280040B2FFF749
:104AE00097FF012801D101200EE0DFF844172000D4
:104AF00040B251F820006DB265F3092066F307005B
:104B000064B241F82400002070BD38B504000D00E7
:104B10002900200040B2FFF77BFF012801D10120CE
:104B200010E0DFF81017086850F0004050F04070B7
:104B300050F47F0064B264F3092065F30700086055
:104B40000868002032BD0100C02049B2002905D00C
:104B5000022907D004D3032906D006E0322004E05E
:104B60003A2002E06A2000E07220C0B270470100E3
:104B7000C02049B2002905D0022907D004D3032957
:104B800006D006E0312004E0392002E0692000E090
:104B90007120C0B270470100C02049B2002906D080
:104BA000022908D005D3042909D006D307E0302014
:104BB00005E0382003E0682001E07020FFE7C0B284
:104BC00070470100C02049B2002906D0022908D050
:104BD00005D3042909D006D307E0332005E0582087
:104BE00003E06B2001E0BF20FFE7C0B27047010087
:104BF000002049B2002905D0022907D004D3032997
:104C000006D006E0132004E0132002E0132000E0A9
:104C1000132040B270470100002049B2002905D09E
:104C2000022907D004D3032906D006E0132004E0AC
:104C3000132002E0132000E0132040B2704701006F
:104C4000002049B2002906D0022908D005D3042942
:104C500009D006D307E0132005E0132003E013205A
:104C600001E01320FFE740B270470100002049B285
:104C7000002906D0022908D005D3042909D006D37B
:104C800007E0132005E0002003E0132001E00020EE
:104C9000FFE740B27047010049B2002905D0022960
:104CA00007D004D3032906D006E0222004E0232005
:104CB00002E0212000E0202040B2704730B4DFF84D
:104CC000782503005BB2D35C0C00E4B2A34200F091
:104CD000A2800B00DBB2082B02D0102B47D098E04B
:104CE000DFF85036040064B253F82440246834F4EA
:104CF000404405006DB253F825502C60040064B2A6
:104D000053F82440D4F800426409640105006DB2F0
:104D100053F82550C5F80042040064B253F824400B
:104D2000D4F8004254F0070405006DB253F8255042
:104D3000C5F80042040064B253F82440D4F800439C
:104D40006409640105006DB253F82550C5F80043AD
:104D5000040064B253F82440D4F8004354F007042C
:104D600005006DB253F82530C3F8004351E0DFF879
:104D7000C435040064B253F82440246834F4404439
:104D800005006DB253F825502C60040064B253F84E
:104D90002440246854F4804405006DB253F8255033
:104DA0002C60040064B253F82440D4F80042640933
:104DB000640105006DB253F82550C5F800420400A7
:104DC00064B253F82440D4F8004254F00F040500B4
:104DD0006DB253F82550C5F80042040064B253F890
:104DE0002440D4F800436409640105006DB253F80F
:104DF0002550C5F80043040064B253F82440D4F8A9
:104E0000004354F00F0405006DB253F82530C3F889
:104E1000004340B2115430BC7047F8B504000E0096
:104E20000821200040B2FFF749FFDFF80C552000B1
:104E300040B22856042810D0200040B22856C0B2F4
:104E4000C010DFF8F81411EBC0110120220052B29B
:104E5000AA5C12F0070290400860DFF8D8742000C6
:104E600040B257F82000FFF7CFFDF6B23100200026
:104E700040B257F82000FFF791FD200040B257F8EC
:104E80002000FFF7A9FD0600200040B257F82000DF
:104E9000FFF787FD8642F0D0200040B257F820008F
:104EA000FFF789FD0028F7D0200040B257F8200016
:104EB000FFF7A6FD0028F7D0200040B228560428AE
:104EC0000FD0200040B22856C0B2C010DFF87014D6
:104ED00011EBC011012064B22A5D12F0070290406C
:104EE0000860F1BDF8B504000E001021200040B2AA
:104EF000FFF7E4FEDFF84054200040B228560428B3
:104F000010D0200040B22856C0B2C010DFF82C14D8
:104F100011EBC0110120220052B2AA5C12F007026C
:104F200090400860DFF80C74B6B23100200040B247
:104F300057F82000FFF732FD200040B257F820005C
:104F4000FFF74AFD0600200040B257F82000FFF7A7
:104F500028FD8642F0D0200040B257F82000FFF72D
:104F60002AFD0028F7D0200040B2285604280FD090
:104F7000200040B22856C0B2C010DFF8C41311EBB5
:104F8000C011012064B22A5D12F00702904008604F
:104F9000F1BD2DE9F84307000D0014001021380081
:104FA00040B2FFF78BFEDFF89063380040B2305616
:104FB000042810D0380040B23056C0B2C010DFF81C
:104FC0007C1311EBC01101203A0052B2B25C12F016
:104FD000070290400860DFF85C832988380040B2FF
:104FE00058F82000FFF7DAFCAD1C380040B258F842
:104FF0002000FFF7F1FC8146380040B258F820004D
:10500000FFF7CFFC8145F0D0641E002CE3D13800BF
:1050100040B258F82000FFF7CEFC0028F7D0380047
:1050200040B2305604280FD0380040B23056C0B2DB
:10503000C010DFF80C1311EBC01101207FB2F25D3C
:1050400012F0070290400860BDE8F1832DE9F041BD
:1050500004000F0016000821200040B2FFF72EFECA
:10506000DFF8D452200040B22856042810D0200087
:1050700040B22856C0B2C010DFF8C01211EBC01108
:105080000120220052B2AA5C12F007029040086090
:10509000DFF8A082FFB23900200040B258F82000AB
:1050A000FFF77CFC200040B258F82000FFF794FC8A
:1050B0000700200040B258F82000FFF772FC87423A
:1050C000F0D0F6B23100200040B258F82000FFF7CF
:1050D00065FC200040B258F82000FFF77DFC060078
:1050E000200040B258F82000FFF75BFC8642F0D069
:1050F000200040B258F82000FFF75DFC0028F7D0F0
:10510000200040B258F82000406AC007F8D42000C0
:1051100040B2285604280FD0200040B22856C0B212
:10512000C010DFF81C1211EBC011012064B22A5D1F
:1051300012F0070290400860BDE8F0812DE9F843C5
:105140000600894615001C000821300040B2FFF718
:10515000B5FDDFF8E471300040B23856042810D0B5
:10516000300040B23856C0B2C010DFF8D01111EB99
:10517000C0110120320052B2BA5C12F00702904016
:105180000860DFF8B0815FFA89F94946300040B223
:1051900058F82000FFF702FC300040B258F8200019
:1051A000FFF71AFC8146300040B258F82000FFF7A4
:1051B000F8FB8145F0D02978300040B258F8200043
:1051C000FFF7ECFB6D1C300040B258F82000FFF7F1
:1051D00003FC8146300040B258F82000FFF7E1FBA5
:1051E0008145F0D0641E002CE5D1300040B258F863
:1051F0002000FFF7E0FB0028F7D0300040B238561F
:1052000004280FD0300040B23856C0B2C010DFF8CA
:10521000301111EBC011012076B2BA5D12F0070215
:1052200090400860BDE8F18300180040001C004079
:10523000000C004000040040A4AD02082DE9F84332
:1052400080460D0016001C000821404640B2FFF7C2
:1052500035FD394F404640B2385604280FD04046FD
:1052600040B23856C0B2C010344911EBC011012011
:10527000424652B2BA5C12F0070290400860DFF872
:10528000B490EDB22900404640B259F82000FFF733
:1052900085FB404640B259F82000FFF78CFB002800
:1052A000F7D0404640B259F82000FFF7A9FB00288C
:1052B000F7D0404640B259F82000FFF7A5FB002187
:1052C000404640B259F82000FFF768FB404640B224
:1052D00059F82000FFF76FFB0028F7D0404640B296
:1052E00059F82000FFF78CFB0028F7D0404640B269
:1052F00059F82000D0F840033070761C641E002C52
:10530000DDD1404640B23856042810D0404640B265
:105310003856C0B2C0100A4911EBC01101204FFA33
:1053200088F817F8082012F0070290400860BDE8DE
:10533000F1830000843D0208A0AD02080400314062
:10534000080031402DE9F84F9CB004000D001E000C
:10535000920000238E48012100F04CFF0700342109
:105360000022E8464046FEF72BFA3C2100220DF1D0
:1053700034084046FEF724FA20003100C0B2C9B21A
:10538000884201D1012000E000209DF998B0DFF8AB
:10539000049240F2AB324946C0B200F058FB3000F4
:1053A0005946C0B2C9B2884201D1012000E00020B4
:1053B0009DF99C804FF46B724946C0B200F047FBE8
:1053C00006200190584640B2FFF725FC8DF80800F2
:1053D000584640B2FFF7CBFB81465FF0080A5846BB
:1053E00040B2FFF7C4FBDFF8B0B16A4699FBFAF1AF
:1053F0000AFB11994946C0B2C010C001584401F0DF
:105400009CF806200190300040B2FFF7F0FB8DF8C9
:105410000800300040B2FFF796FB81465FF0080AB3
:10542000300040B2FFF78FFB6A4699FBFAF10AFBA6
:1054300011994946C0B2C010C001584401F07DF82E
:10544000404640B204281ED008200190404640B299
:10545000FFF7F5FB8DF80800404640B2FFF79BFBD5
:1054600006005FF00809404640B2FFF794FB6A4629
:1054700096FBF9F109FB11663100C0B2C010C00102
:10548000584401F05AF89DF9A060300040B2042859
:105490001ED006200190300040B2FFF7E6FB8DF8E9
:1054A0000800300040B2FFF78CFB80465FF008092F
:1054B000300040B2FFF785FB6A4698FBF9F109FB23
:1054C00011884146C0B2C010C001584401F035F8FF
:1054D000200040B2FFF7DFFB2200D2B2521C0321B2
:1054E00040B2FFF7F5FA17F01F03C7F35712210078
:1054F000C9B2491C0320FFF7A5FA2100C9B2491C13
:105500000320FFF702FB6DB2002D05D0022D09D05C
:1055100005D3032D09D00AE000200F9007E00120F9
:105520000F9004E002200F9001E003200F90012073
:105530000D9000200E90042010900820119008205B
:10554000129001208DF84C0001208DF84F000F4D76
:1055500000220DA9200040B255F8200001F02EF8DD
:105560000021200040B255F82000FFF743FA200048
:1055700040B255F82000FFF738FA034864B20655E8
:105580001DB0BDE8F08F0000A0AD0208843D020808
:1055900000002D31D0E90810000031400069C840FA
:1055A00010F001007047012212FA01F1816070478A
:1055B000012212FA01F14160704710B48900436C76
:1055C0000F248C40A34312F00F0212FA01F1194389
:1055D000416410BC704780B5C9B200290ED00100EB
:1055E000C9B2082291FBF2F302FB1311494AC0B27F
:1055F000C010C0011044FFF7D6FF0DE00100C9B292
:10560000082291FBF2F302FB1311424AC0B2C01010
:10561000C0011044FFF7CCFF01BD80B50100C9B245
:10562000082291FBF2F302FB13113A4AC0B2C010F8
:10563000C0011044FFF7B2FFC0B202BD10B549B2BD
:1056400000290BD152B2002A02D0022A02D003E074
:105650000F220BE00B2209E00A2207E052B2042AD3
:1056600001D10C2200E00E2212F007020100C9B2A3
:10567000082391FBF3F403FB1411264BC0B2C010B6
:10568000C0011844FFF799FF10BD2DE9F8418DB016
:1056900004000E0015001F0034210022E846404699
:1056A000FEF78EF876B2002E0ED17FB2002F02D018
:1056B000022F03D005E00F2001900DE0082001909B
:1056C0000AE00820019007E07FB2042F02D10F20EA
:1056D000019001E00E2001902000C0B2C0280FD040
:1056E0002100C9B208206A4691FBF0F300FB1311B8
:1056F00008482300DBB2DB10DB01184400F01DFF7B
:105700002900C9B22000C0B2FFF765FF0EB0BDE8A6
:10571000F08100000000314082B0002001900020A4
:1057200000900020019009E00098401C0090009833
:10573000B0F5005FF8D30198401C01900198B0F5D6
:10574000805F02D200200090F1E702B0704780B580
:105750000100002001F00AFA01BD2DE9F043ADF58A
:10576000137D0700884616001C000020ADF80200DB
:105770000020ADF80000002002900020ADF80400E9
:105780000020ADF80600404601F00AFC0290DFF868
:10579000A8532888002801D028698047DFF89C0397
:1057A0000078002800F036812888002800F0148155
:1057B000BDF90600411CADF806103A00010089B29F
:1057C0000020EB6898474746404601F0E9FB02900D
:1057D0006888A97990FBF1F0ADF804003800471C07
:1057E00090F900000028F9D10020ADF8000010E089
:1057F0007F1E97F900002F2803D097F900005C283E
:1058000004D1BDF80000401CADF800000298401E15
:105810000290BDF80000022802DA02980028E7D5BD
:105820000298002806D47A1CDFF8141353A801F05C
:10583000D3FB0EE0BDF80000002805D13A00C149B5
:1058400053A801F0C9FB04E03A00BD4953A801F098
:10585000C3FB0020ADF8020042E0BDF80010BDF827
:105860000020BDF8023053AF9BB2BDF904004343A2
:1058700013FA82F0385C43AA89B25054BDF8000094
:10588000401CADF80000BDF8000080B2BDF9041066
:1058900088420EDA53A801F083FBBDF80020BDF862
:1058A00002309BB2BDF904104B4313FA82F18842D7
:1058B000D3D2002043A9BDF800208854BDF90600CA
:1058C000411CADF8061043AAE97911FB00F189B239
:1058D0000020EB689847BDF80200401CADF80200BC
:1058E000BDF8027053A801F05BFBBDF90410B0FBDA
:1058F000F1F0401CBFB2874203D20020ADF8000097
:10590000C1E73200904953A801F066FBBDF90600DB
:10591000411CADF8061053AAE97911FB00F189B2D8
:105920000020EB689847002C74D00020ADF80200EE
:1059300041E0BDF80010BDF80020BDF802309BB278
:10594000BDF90400434313FA82F0205C43AA89B2F4
:105950005054BDF80000401CADF80000BDF8000038
:1059600080B2BDF9041088420EDA200001F018FB65
:10597000BDF80020BDF802309BB2BDF904104B43C6
:1059800013FA82F18842D4D2002043A9BDF8002046
:105990008854BDF90600411CADF8061043AAE97908
:1059A00011FB00F189B20020EB689847BDF80200B6
:1059B000401CADF80200BDF80260200001F0F0FAD2
:1059C000BDF90410B0FBF1F0401CB6B2864221D202
:1059D0000020ADF80000C1E74FF4807100220DF106
:1059E0000C094846FDF7ECFE3800A9688847002CF2
:1059F00007D0009433004246544903A801F0ECFA62
:105A000005E033004246524903A801F0E5FA03A835
:105A1000A96888470DF5137DBDE8F08310B54748A8
:105A20000078002809D04C4C2100002001F0AFF88C
:105A300001222100474801F0FCFA10BD10B5140006
:105A4000220052B2002001F082F8200010BD38B5CB
:105A50000C001500C0B2002803D14048007800288F
:105A600000D131BD3E490878002800D0FEE7087813
:105A7000401C087001F01AFC00232A00210039485C
:105A8000FFF76BFEFFF748FEF6E710B514001A00AB
:105A9000C0B2002808D129480078002804D00B00A3
:105AA00021003148FFF759FE10BD002101804FF65B
:105AB000FF7141808180FF218171C171002181606E
:105AC0000021C1600021016170471B4902880A80E2
:105AD00042884A8082888A8082798A71C279CA71B2
