:020000041008E2
:100000000000080845DE081021E2081095DF0810FE
:1000100025E2081029E208102DE208100000000077
:100020000000000000000000000000006DE008106B
:1000300031E208100000000035E2081039E2081033
:100040007BD00810A1D00810C7D00810EDD0081040
:1000500013D1081039D108105FD1081085D10810CC
:100060003DE2081041E2081045E2081049E208109C
:100070004DE2081051E2081055E2081059E208104C
:10008000C82E002E802E3DB1C82E002E802E91034A
:10009000802EBCB0802EA303C82E002E802E00B070
:1000A0005030212E59F51030212E6AF5802E3B0359
:1000B0000000000008190100220075000010001067
:1000C000D100B343802E00C1802E00C1802E00C11C
:1000D000802E00C1802E00C1802E00C1802E00C164
:1000E000802E00C1802E00C1802E00C1802E00C154
:1000F000802E00C1802E00C1802E00C1802E00C144
:10010000802E00C1802E00C1802E00C1802E00C133
:10011000802E00C1802E00C1802E00C1802E00C123
:10012000802E00C1802E00C1802E00C1802E00C113
:10013000802E00C1802E00C1802E00C1802E00C103
:10014000802E00C1802E00C1802E00C1802E00C1F3
:10015000802E00C1802E00C1802E00C1802E00C1E3
:10016000802E00C1802E00C1802E00C1E05F000003
:1001700000000100000000000000000000009200EC
:10018000000000000000000000000000000000006F
:1001900008190000880000000000000005E0AA38EF
:1001A00005E09030FA0096004B09110011000200A2
:1001B0002D01D47B3B01DB7A04003F7BCD6CC30473
:1001C0008509C304ECE60C460100270019009600DF
:1001D000A00001000C00F03C000101000300010040
:1001E0000E00000032000500EE060400C80000000A
:1001F0000400A805EE060004BC02B3008507000059
:1002000000000000000000000000000000000000EE
:100210000000B4000100B9000100980000000000D7
:100220000000000001008000040000000000000049
:1002300000000000000000000000000000000000BE
:1002400000000000000000000000000000000000AE
:10025000000000000000000000000000000000009E
:10026000000000000000000000000000000000008E
:1002700000000000000000000000802E00C1FD2DE5
:10028000DE00EB00DA00000CFF0F0004C0005BF59D
:10029000C9011EF280003FFF19F458F566F564F5B8
:1002A000C0F1F000E000CD01D301DB01FF7FFF01D1
:1002B000E40074F7F300FA00FF3FCA036C3856FEFF
:1002C00044FDBC02F90600FC1202AE0158FA9AFD88
:1002D0007705BB02960195017F01820189018701A3
:1002E00088018A018C018F018D0192019101DD004D
:1002F0009F017E01DB00B601706926D39C071F05B4
:100300009D000008BC0537FAA201AA01A101A801BD
:10031000A001A805B401B401CE00D000FC00C501C5
:10032000FFFBB10000380030FDF5FCF5CD01A00069
:100330005FFF0040FF0000806D0FEB007FFFC2F504
:1003400068F7B3F1670F5B0F610F800F58F75BF72A
:10035000830F8600720F850FC6F17F0F6CF700E0E8
:1003600000FFD1F5870F8A0FFF03F03F8B008E004F
:100370009000B9002DF5CAF5CB0120F20000000075
:10038000000000000000000000000000000000006D
:10039000000000000000000000000000000000005D
:1003A000000000000000000000000000000000004D
:1003B000000000000000000000000000000000003D
:1003C000000000000000000000000000000000002D
:1003D000000000000000000000000000000000001D
:1003E000000000000000000000000000000000000D
:1003F00000000000000000000000000000000000FD
:1004000000000000000000000000000000000000EC
:1004100000000000000000000000000000000000DC
:1004200000000000000000000000000000000000CC
:1004300000000000000000000000000000000000BC
:1004400000000000000000000000000000000000AC
:1004500000000000000000003050982ED70E5032EF
:10046000982EFA030030F07F002E002ED02E002EA2
:10047000018008A2FB2F982EBA03212E1900012E0D
:10048000EE0000B2072F012E190000B2032F015019
:100490000352982E07CC012EDD0000B2272F052E27
:1004A0008A000552982EC7C1032EE90040B2F07FA2
:1004B000082F012E190000B2042F0030212EE90070
:1004C000982EB4B1012E180000B2102F0550982EAE
:1004D0004DC30550982E5AC7982EF9B4982E54B291
:1004E000982E67B6982E17B21030212E7700012E65
:1004F000EF0000B2042F982E7AB70030212EEF00C3
:10050000012ED40004AE0B2F012EDD0000B2072F08
:100510000552982E8E0E00B2022F1030212E7D0033
:10052000012E7D000090902EF102012ED70000B226
:10053000042F982E2F0E0030212E7B00012E7B00E1
:1005400000B2122F012ED4000090022F982E1F0E01
:10055000092D982E810D012ED4000490022F5032C7
:10056000982EFA030030212E7B00012E7C0000B271
:10057000902E0903012E7C000131010800B2042FE6
:10058000982E47CB1030212E77008130012E7C0031
:10059000010800B2612F032E8900012ED40098BCFF
:1005A00098B805B20F58232F079009540030372F01
:1005B00015410441DCBE44BEDCBA2C0161000F567B
:1005C0004A0F0C2FD14294B8C1421130052E6AF760
:1005D0002CBD2FB980B20822982EC3B7212D6130CF
:1005E000232ED400982EC3B70030212E5AF5182D93
:1005F000E17F5030982EFA030F520750504270306E
:100600000D5442427E82E26F80B24242052F212E7B
:10061000D4001030982EC3B7032D6030212ED400A3
:10062000012ED4000690182F012E76000B5407528D
:10063000E07F982E7AC1E16F081A4030082F212EF2
:10064000D4002030982EAFB75032982EFA03052DE3
:10065000982E380E0030212ED4000030212E7C0040
:10066000182D012ED40003AA012F982E450E012E1D
:10067000D4003F8003A2012F002E022D982E5B0E86
:100680003030982ECEB70030212E7D005032982E7B
:10069000FA03012E770000B2242F982EF5CB032EFB
:1006A000D5001154010ABC848386212EC901E04083
:1006B0001352C4408240A8B9524243BE5342040A76
:1006C0005042E17FF0314140F26F25BD0808020A37
:1006D000D07F982EA8CF06BCD16FE26F080A804267
:1006E000982E58B70030212EEE00212E7700212EB3
:1006F000DD00802EF4011A242200802EEC0110501F
:10070000FB7F982EF3035750FB6F01307154114259
:10071000420EFC2FC02E0142F05F802E00C1FD2D45
:100720000100000000000000000000009A013403F6
:1007300000000000000000000000000000000000B9
:1007400000000000000000000000000000000000A9
:100750000000000000000000000000000000000099
:100760000000000000000000000000000000000089
:100770000000000000000000000000000000000079
:100780000000000000000000000000000000000069
:100790000000000000000000000000000000000059
:1007A00000002050E77FF67F06320F2E61F5FE092C
:1007B000C0B3042F17302F2EEF002D2E61F5F66FEA
:1007C000E76FE05FC82E2050E77FF67F46300F2EA0
:1007D000A4F1BE0980B3062F0D2ED40084AF022FE2
:1007E00016302D2E7B0086302D2E60F5F66FE76FCC
:1007F000E05FC82E012E77F709BC0FB800B2105089
:10080000FB7F10300B2F032E8A0096BC9FB840B29E
:10081000052F032E68F79EBC9FB840B2072F032E0A
:100820007E004190012F982EDC03032C0030212EF6
:100830007E00FB6FF05FB82E2050E07FFB7F002E24
:100840002750982E3BC82950982EA7C80150982EA3
:1008500055CCE16F2B50982EE0C9FB6F0030E05F64
:10086000212E7E00B82E7350013057541142420E93
:10087000FC2FB82E212E59F51030C02E212E4AF112
:100880009050F77FE67FD57FC47FB37FA17F907FB5
:10089000827F7B7F982E35B700B2902E97B0032EC3
:1008A0008F00072E9100052EB1003FBA9FB8012E90
:1008B000B100A3BD4C0A052EB10004BEBFB9CB0ADE
:1008C0004FBA22BD012EB300DC0A2FB9032EB800A7
:1008D0000ABE9A0ACFB99BBC012E97009FB8930A13
:1008E0000FBC910A0FB8900A252E1800052EC1F5ED
:1008F0002EBD2EB9012E190031308A040090072F29
:10090000012ED40004A2032F012E180000B20C2FD8
:1009100019500552982E4DB7052E78008090103052
:10092000012F212E7800252EDD00982E3EB700B233
:1009300002300130042F012E190000B2002F2130A7
:10094000012EEA00081A0E2F232EEA0033301B5026
:100950000B090140175646BE4B084C0A01420A805B
:1009600015520142002E012E180000B21F2F032E37
:10097000C0F5F030480847AA7430072E7A0061228B
:100980004B1A052F072E66F5BFBDBFB9C0900B2FC0
:100990001D562B30D242DB420104C24204BDFE8010
:1009A0008184232E7A0002420232252E62F5052E22
:1009B000D6008184252ED6000231252E60F5052E25
:1009C0008A000B50900880B20B2F052ECAF5F03E1E
:1009D0009008252ECAF5052E59F5E03F9008252EE2
:1009E00059F5906FA16FB36FC46FD56FE66FF76F56
:1009F0007B6F826F705FC82EC050907FE57FD47F81
:100A0000C37FB17FA27F877FF67F7B7F002E012E81
:100A100060F5607F982E35B70230636F1552507FB6
:100A2000627F5A2C02321A0900B3142F00B2032F2E
:100A3000092E180000910C2F437F982E97B71F5056
:100A4000028A02320430252E64F51552506F436F2E
:100A50004443252E60F5D908C0B2362F982E3EB7F4
:100A600000B2062F012E190000B2022F506F009025
:100A70000A2F012E79000090192F1030212E7900B5
:100A80000030982EDC03132D012EC3F50CBC0FB8DB
:100A90001230100403B0262521500352982E4DB772
:100AA0001030212EEE000230607F252E7900606F1D
:100AB0000090052F0030212EEA001550212E64F5FC
:100AC0001552232E60F50232506F0090022F033032
:100AD000272E7800072E60F51A090091A32F190917
:100AE0000091A02F906FA26FB16FC36FD46FE56FAD
:100AF0007B6FF66F876F405FC82EC050E77FF67F31
:100B000026300F2E61F52F2E7C000F2E7C00BE09A3
:100B1000A27F807F80B3D57FC47FB37F917F7B7FAF
:100B20000B2F23501A251240427F74821240527FAD
:100B3000002E0040607F982E6AD68130012E7C0006
:100B4000010800B2422F032E8900012E890097BCB4
:100B500006BC9FB80FB80090232ED800103001308B
:100B60002A2F032ED40044B2052F47B200302D2F78
:100B7000212E7C002B2D032EFDF59EBC9FB84090AE
:100B8000142F032EFCF599BC9FB840900E2F032E16
:100B900049F125544A084090082F982E35B700B2E5
:100BA0001030032F5030212ED400102D982EAFB7C7
:100BB0000030212E7C000A2D052E69F72DBD2FB99E
:100BC00080B2012F212E7D00232E7C00E031212ECA
:100BD00061F5F66FE76F806FA26FB36FC46FD56F6B
:100BE0007B6F916F405FC82E60510A253688F47F75
:100BF000EB7F0032315232301330982E15CB0A255C
:100C00003384D27F433005502D52982E95C1D26F38
:100C10002752982ED7C72A25B086C07FD37FAF84AE
:100C20002950F16F982E4DC82A25AE8AAA88F26EF7
:100C30002B50C16FD36FF47F982EB6C8E06E00B210
:100C4000322F33548386F16FC37F04303030F47F0A
:100C5000D07FB27FE330C56F56404541280803146A
:100C60000EB408BC8240100A2F542605917F4428F8
:100C7000A37F982ED9C008B933305309C16FD36F01
:100C8000F46F831747406C15B26FBE09750B904225
:100C90004542510E32BC0289A16F7E86F47FD07F1F
:100CA000B27F0430916FD62FEB6FA05EB82E032E6B
:100CB00097001BBC60509FBC0CB8F07F40B2EB7F2C
:100CC0002B2F032E7F004140012EC800011A112F47
:100CD0003758232EC8001041A07F38810141D07FB2
:100CE000B17F982E64CFD06F0780A16F1142002E84
:100CF000B16F01421130012EFC0000A80330CB225D
:100D00004A25012E7F003C8935520554982EC4CEC9
:100D1000C16FF06F982E95CF042D0130F06F982E93
:100D200095CFEB6FA05FB82E032EB3000232F030E8
:100D3000033130508A080808CB08E07F80B2F37F87
:100D4000DB7F252F032ECA004190042F0130232E74
:100D5000CA00982E3F03C0B2052F032EDA000030E0
:100D60004104232EDA00982E92B21025F06F00B2C3
:100D7000052F012EDA0002301004212EDA0040B2D5
:100D8000012F232EC801DB6FE06FD05F802E95CF3F
:100D90000130E06F982E95CF1130232ECA00DB6F03
:100DA000D05FB82ED0500A2533845550D27FE27FD1
:100DB000038CC07FBB7F0030055A39545141A57F59
:100DC000967F807F982ED9C00530F57F2025916FC2
:100DD0003B583D5C3B56982E67CCC16FD56F524057
:100DE0005043C17FD57F1025982EFEC91025982E1F
:100DF00074C0866F3028926F828CA56F6F52690E17
:100E00003954DB2F19A01530032F0030212E81011A
:100E10000A2D012E810105284236212E8101020E64
:100E2000012F982EF303575012300140982EFEC91F
:100E3000516F0B5C8E0E3B6F57580230212E95017F
:100E4000456F2A8DD27FCB7F132F02303F50D27F48
:100E5000A80E0E2FC06F535402005154420E103092
:100E600059520230012F002E032D504242421230BF
:100E7000D27F80B2032F0030212E8001122D012E4F
:100E8000C9000280052E8001113091280040252ED6
:100E90008001100E052F012E7F010190012F982E49
:100EA000F303002EA0410190A67F902EE3B4012E03
:100EB000950100A8902EE3B45B549580824080B2E7
:100EC00002402D8C3F52967F902EC2B3290E762F72
:100ED000012EC900004081284552B330982E0FCA18
:100EE0005D54807F002EA140727F82808240607FAF
:100EF000982EFEC91025982E74C0626F0530874069
:100F0000C0910430052F052E830180B21430002FCC
:100F10000430052EC900736F8140E2406904110F4F
:100F2000E1401630FE29CB40022F836F830F222F22
:100F30004756130F1230772F4954420E1230732F39
:100F400000910A2F012E8B0119A802306C2F6350DB
:100F5000002E17420542682C12300B25080F503026
:100F6000022F212E8301032D4030212E83012B2EB1
:100F700085015A2C123000912B25042F635002302A
:100F80001742172C0242982EFEC91025982E74C0C5
:100F9000052EC90081845B308240372E8301020E0A
:100FA000072F5F52403062404140910E012F212EA9
:100FB000830105302B2E85011230362C1630152575
:100FC000817F982EFEC91025982E74C019A2163064
:100FD000152F052E9701806F820E052F012E860199
:100FE0000628212E86010B2D032E87015F544E28E3
:100FF0009142002E8240900E012F212E8801023056
:10100000132C0530C06F081CA80F163005305B503C
:10101000092F02802D2E820105420580002E0242FA
:101020003E80002E06420230906F3E88014004410F
:101030004C280142078010252440004000A8F522DA
:10104000232944427A827E884340044100ABF52341
:10105000DF284342D9A0142F0090022FD26F81B213
:10106000052F6354062890428542092C02305B50BC
:101070000380292E7E012B2E8201054212302B2E59
:1010800083014582002E40407A8202A0082F6350DF
:101090003B30154205423780372E7E010542123023
:1010A000012EC900028C404084417A8C040F032F2A
:1010B000012E8B0119A4042F2B2E8201982EF303ED
:1010C000123081906152082F654265424380398415
:1010D00082880542454285420543002E80410090AA
:1010E000902EE1B46554C16F804000B243586950FE
:1010F000442F555CB7878C0F0D2E9601C440362FB8
:1011000041568B0E2A2F0B52A10E0A2F052E8F014E
:101110001425982EFEC94B54020F695005306554B2
:10112000152F032E8E014D5C8E0F3A2F052E8F0149
:10113000982EFEC94F54820F053069506554302FE8
:101140006D521530428C454204302B2C84436B5237
:10115000428C002E85431530242C45428E0F202FC3
:101160000D2E8E01B10E1C2F232E8E011A2D0E0E68
:10117000172FA10F152F232E8D01132D982E74C01C
:101180004354C20E0A2F655004800B3006820B4276
:10119000798041401230252E8C0101420530695082
:1011A000655484824384BE8C8440864126299442BF
:1011B000BE8ED57F19A143400B2E8C018440C741C0
:1011C0005D29272945428442C27F012FC0B31D2FCC
:1011D000052E940199A0012F80B3132F80B3182FEF
:1011E000C0B3162F12400140927F982E74C0926FA8
:1011F000100F2030032F1030212E7E010A2D212EBA
:101200007E01072D2030212E7E01032D1030212E4E
:101210007E01C26F012EC900BC8402808240004062
:10122000900ED56F022F1530982EF30341910530A3
:10123000072F67503D802B2E8F0105420480002E22
:101240000542022C00300030A26F988A864080A7A9
:10125000052F982EF303C030212E950106251A255F
:10126000E26F768296405643510EFB2FBB6F305F84
:10127000B82E012EB8000131410840B22050F230A2
:101280000208FB7F0130102F052ECC008190E07FFB
:10129000032F232ECC00982E55B6982E1DB5102561
:1012A000FB6FE06FE05F802E95CF982E95CF1030CA
:1012B000212ECC00FB6FE05FB82E00510558EB7F6C
:1012C0002A2589526F5A895013410640B3011642AC
:1012D000CB160640F3021342650EF52F054014307D
:1012E0002C29044208A10030902E52B6B388B08A4F
:1012F000B684A47FC47FB57FD57F927F73300430DE
:10130000554042408A17F3086B01900253B84B8254
:10131000ADBE717F450A0954847F982ED9C0A36F52
:101320007B54D042A37FF27F607F2025716F755A76
:101330007758795C7556982E67CCB16F626F5042C2
:10134000B17FB3301025982E0FCA846F2029716F9A
:10135000926FA56F76826A0E73300030D02FD26FF5
:10136000D17FB47F982E2BB715BD0BB8020AC26F80
:10137000C07F982E2BB715BD0BB8420AC06F081757
:1013800041188916E118D018A17F27251625982E17
:1013900079C08B54907FB330824080900D2F7D5266
:1013A000926F982E0FCAB26F900E062F8B5014308A
:1013B000426F516F144212420142002E316F982E3B
:1013C00074C0416F807F982E74C0826F10044352A6
:1013D000010F052ECB0000300430212F516F4358F0
:1013E0008C0E04301C2F8588416F04418C0F043013
:1013F000162F8488002E044104058C0E04300F2F14
:101400008288316F044104058C0E0430082F8388D4
:10141000002E04418C0F0430022F212EAD01143018
:101420000091142F032EA10141900E2F032EAD0128
:1014300014304C28232EAD0146A0062F81848D52F6
:1014400048828240212EA10142425C2C0230052EAE
:10145000AA0180B20230552F032EA901926FB3303A
:10146000982E0FCAB26F900F003002304A2FA26F31
:10147000875291008552510E022F002E432C0230CC
:10148000C26F7F52910E02303C2F516F8154982EC3
:10149000FEC91025B3302125982E0FCA326FC07FA8
:1014A000B3301225982E0FCA426FB07FB330122589
:1014B000982E0FCAB26F90288352982EFEC9C26F21
:1014C000900F003002301D2F052EA10180B2123086
:1014D0000F2F426F032EAB01910E0230122F526F6D
:1014E000032EAC01910F02300C2F212EAA010A2CE1
:1014F0001230032ECB008D58088941401143004320
:10150000252EA101D46F8F5200433A89002E10433B
:101510001043610EFB2F032EA001111A022F02258A
:10152000212EA001EB6F005FB82E915210300230D7
:10153000955652424B0EFC2F8D5488829356804212
:101540005342404242868354C02EC242002EA352D0
:101550000051524047401A25012E97008FBE7286D7
:10156000FB7F0B307CBFA5501008DFBA7088F8BF36
:10157000CB42D37F6CBBFCBBC50A907F1B7F0B4368
:10158000C0B2E57FB77FA67FC47F902E1CB7072E21
:10159000D200C0B20B2F9752012ECD00827F982E21
:1015A000BBCC0B30372ED200826F906F1A2500B261
:1015B0008B7F142FA6BD25BDB6B92FB980B2D4B08C
:1015C0000C2F99549B560B300B2EB100A1589B4207
:1015D000DB426C092B2EB1008B42CB42867F738499
:1015E000A756C30839520550727F637F982EC2C038
:1015F000E16F626FD10A012ECD00D56FC46F726F9B
:1016000097529D5C982E06CD236F906F9952C0B271
:1016100004BD5440AFB94540E17F0230062FC0B24F
:101620000230032F9B5C12309443854303BF6FBB92
:1016300080B3202F066F2601166F6E034542C090BF
:10164000292ECE009B52142F9B5C002E9341864185
:10165000E304AE0780AB042F80910A2F866F730FCF
:10166000072F836FC0B2042F544245421230042C1E
:101670001130022C1130113002BC0FB8D27F00B2F1
:101680000A2F012EFC00052EC701101A022F212E51
:10169000C701032D022C01300130B06F982E95CF79
:1016A000D16FA06F982E95CFE26F9F52012ECE0082
:1016B000824050420C2C42421130232ED200013085
:1016C000B06F982E95CFA06F0130982E95CF002E39
:1016D000FB6F005FB82E83860130003094402418E1
:1016E0000600530E4F02F92FB82EA952002E60406B
:1016F00041400DBC98BCC02E010A0FB8AB52533C00
:10170000524040404B00821626B901B841401008B3
:1017100097B80108C02E11300108438625400440C7
:10172000D8BE2C0B2211544203804B0EF62FB82E3C
:101730009F501050AD52052ED300FB7F002E13405A
:101740009342410EFB2F982EA5B7982E87CF012EDE
:10175000D90000B2FB6F0B2F012E69F7B13F0108D2
:101760000130F05F232ED900212E69F7802E7AB741
:10177000F05FB82E012EC0F8032EFCF51554AF56BD
:1017800082080B2E69F7CB0AB1588090DDBE4C0859
:101790005FB959228090072F0334C308F23A0A0830
:1017A0000235C0904A0A4822C02E232EFCF5105064
:1017B000FB7F982E56C7982E49C31030FB6FF05F01
:1017C000212ECC00212ECA00B82E032ED30016B82D
:1017D00002344A0C212E2DF5C02E232ED30003BC3B
:1017E000212ED500032ED50040B21030212E7700D7
:1017F0000130052F052ED8008090012F232E6FF584
:10180000C02E212ED90011308108012E6AF7713FB8
:1018100023BD0108020AC02E212E6AF730250030B0
:10182000212E5AF51050212E7B00212E7C00FB7FAB
:10183000982EC3B74030212ED400FB6FF05F0325F4
:10184000802EAFB7802E00C1802E00C1802E00C137
:10185000802E00C1802E00C1802E00C1802E00C1CC
:10186000802E00C1802E00C1802E00C1802E00C1BC
:10187000802E00C1802E00C1802E00C1802E00C1AC
:10188000012E5DF708BC80AC0EBB022F0030410476
:101890008206C0A40030112F40A9032F40910D2FC4
:1018A00000A70B2F80B3B358022F90A1261320233B
:1018B00080901030012FCC0E002F0030B82EB55084
:1018C000180808BC88B60D17C6BD56BCB758DABA9A
:1018D00004011D0A1050053032254503FB7FF63008
:1018E0002125982E37CA16B59ABC06B880A8410A99
:1018F0000E2F8090022F2D50480F092FBFA0042FCC
:10190000BF90062FB754CA0F032F002E022CB752D8
:101910002D52F233982ED9C0FB6FF137C02E01083B
:10192000F05FBF56B954D040C4400B2EFDF3BF52F8
:101930009042944295420530C1500F8806400441C0
:101940009642C54248BE73300D2ED8004FBA84422D
:10195000034281B3022F2B2E6FF5062D052E77F74C
:10196000BD569308252E77F7BB54252EC2F5072EBA
:10197000FDF34230B433DA0A4C00272EFDF3434026
:10198000D43FDC084342002E002E43402430DC0AC2
:1019900043420480032EFDF34A0A232EFDF36134F3
:1019A000C02E0142002E60501A257A86E07FF37F18
:1019B0000325C3524184DB7F3330982E16C21A258B
:1019C0007D82F06FE26F32251640944026018540FB
:1019D0008E17C4426E039542410EF42FDB6FA05F59
:1019E000B82EB051FB7F982EE80D5A25982E0F0E79
:1019F000CB583287C47F65896B8DC55A657FE17F7F
:101A0000837FA67F747FD07FB67F947F1730C752C5
:101A1000C954517F002E856F427F002E5141458170
:101A2000424113403B8A00404B04D006C0AC857F46
:101A3000022F02305104D306418405305D02C916DD
:101A4000DF08D3008D02AFBCB1B9590A656F1143ED
:101A5000A1B4524153410143347F657F2631E56F84
:101A6000D46F982E37CA326F756F83404241237FFF
:101A7000127FF63040255125982E37CA146F200565
:101A8000706F256F6907A26F316F0B3004429B4264
:101A90008B425542327F40A9C36F717F0230D040E4
:101AA000C37F032F4091152F00A7132F00A4112FE0
:101AB00084BD982E79CA556FB75454418200F33FC4
:101AC0004541CB02F630982E37CA356FA46F41439B
:101AD000032C0043A46F356F1730426F516F934052
:101AE00042820041C3000343517F002E9440414194
:101AF0004C02C46FD156630E746F5143A57F8A2F79
:101B0000092ED80001B3212FCB58906F1341B66F27
:101B1000E47F002E9141144092411540172E6FF53D
:101B2000B67FD07FCB7F982E000C0715C26F140BA9
:101B3000292E6FF5C3A3C18FE46FD06FE62F143049
:101B4000052E6FF5140B292E6FF5182DCD56043286
:101B5000B56F1C0151415241C340B57FE47F982EBF
:101B60001F0CE46F218700430432CF545A0EEF2F2D
:101B70001554092E77F7220B292E77F7FB6F505E4D
:101B8000B82E1050012ED40000B2FB7F512F01B2AD
:101B9000482F02B2422F0390562FD75279804240ED
:101BA000818400404242982E930CD954D750A140D2
:101BB00098BD82403E82DA0A44408B16E3005342CD
:101BC000002E43409A025242002E414015544A0EC4
:101BD0003A2F3A8200304140212E850F40B20A2F21
:101BE000982EB10C982E450E982E5B0EFB6FF05F71
:101BF0000030802ECEB7DD52D35442424F84733032
:101C0000DB5283421B306B422330272ED700372E06
:101C1000D400212ED6007A84172C42423030212E57
:101C2000D400122D21300030232ED400212E7BF73A
:101C30000B2D1730982E510CD5500C8272302F2E50
:101C4000D400252E7BF74042002EFB6FF05FB82EAC
:101C500070500A253986FB7FE1326230982EC2C46B
:101C6000B556A56FAB08916F4B08DF56C46F2309BB
:101C70004DBA93BC8C0BD16F0B09CB52E15E56422F
:101C8000AF094DBA23BD940AE56F68BBEB08BDB937
:101C900063BEFB6F5242E30AC02E4342905FD150B5
:101CA000032E25F3134000409BBC9BB408BDB8B97C
:101CB00098BCDA0A08B68916C02E190062021050C4
:101CC000FB7F982E810D012ED40031300804FB6F6C
:101CD0000130F05F232ED600212ED700B82E012E22
:101CE000D700032ED600480E012F802E1F0EB82ECF
:101CF000E350213401428230C132252E62F50100C9
:101D0000223001404A0A0142B82EE354F03B83409E
:101D1000D808E5528342003083305042C432272E27
:101D200064F5940050424042D33F84407D82E308F2
:101D300040428342B82EDD52003040427C86B95288
:101D4000092E700FBF54C442D3865440554094426C
:101D50008542212ED7004240252EFDF3C0427E82CF
:101D6000052E7D0080B2142F052E890027BD2FB9C6
:101D70008090022F212E6FF50C2D072E710F14303D
:101D80001C09052E77F7BD5647BE9308940A252EE9
:101D900077F7E75450424A0EFC2FB82E50500230CD
:101DA0004386E550FB7FE37FD27FC07FB17F002E6B
:101DB000414000404804982E74C01EAAD36F1430CE
:101DC000B16FE322C06F5240E46F4C0E1242D37FDA
:101DD000EB2F032E860F40901130032F232E860FFA
:101DE000022C0030D06FFB6FB05FB82E4050F17FF7
:101DF0000A253C86EB7F41332230982EC2C4D36F34
:101E0000F430DC094758C26F9409EB586ABBDC0810
:101E1000B4B9B1BDE95A950821BDF6BF770B51BEE3
:101E2000F16FEB6F52425442C02E4342C05F50509C
:101E3000F55031301142FB7F7B300B421130028074
:101E4000233301420300072E8003052ED3002352C3
:101E5000E27FD37FC07F982EB60ED16F080A1A2575
:101E60007B86D07F01331230982EC2C4D16F080A0E
:101E700000B20D2FE36F012E80035130C786232E51
:101E800021F208BCC042982EA5B7002E002ED02EFD
:101E9000B06F0BB8032E1B00081AB07F7030042FF0
:101EA000212E21F2002E002ED02E982E6DC0982EBD
:101EB0005DC0ED50982E44CBEF50982E46C3F150A4
:101EC000982E53C73550982E64CF1030982EDC03CF
:101ED0002026C06F02311242AB330B4237800130F3
:101EE0000142F337F752FB504440A20A42428B3181
:101EF000092E5EF7F954E30883421B4223334B005B
:101F0000BC840B40333083420B42E07FD17F982E5C
:101F100058B7D16F803040420330E06FF354043043
:101F2000002E002E0189620EFA2F43421130FB6F02
:101F3000C02E0142B05FC14A00006D570000778E8D
:101F40000000E0FFFFFFD3FFFFFFE5FFFFFFEEE133
:101F5000FFFF7C13000046E6FFFF000000000000CA
:101F60000000000000000000000000000000000071
:101F70000000000000000000000000000000000061
:101F80000000000000000000000000000000000051
:101F900000000000802E00C1802E00C1802E00C1F4
:101FA000802E00C1802E00C1802E00C1802E00C175
:101FB000802E00C1802E00C1802E00C1802E00C165
:101FC000802E00C1802E00C1802E00C1802E00C155
:101FD000802E00C1802E00C1802E00C1802E00C145
:101FE000802E00C1802E00C1802E00C1802E00C135
:101FF000802E00C1802E00C1802E00C1802E00C125
:10200000802E00C1802E00C1802E00C1802E00C114
:10201000802E00C1802E00C1802E00C1802E00C104
:10202000802E00C1802E00C1802E00C1802E00C1F4
:10203000802E00C1802E00C1802E00C1802E00C1E4
:10204000802E00C1802E00C1802E00C1802E00C1D4
:10205000802E00C1802E00C1802E00C1802E00C1C4
:10206000802E00C1802E00C1802E00C1802E00C1B4
:10207000802E00C1802E00C1802E00C1802E00C1A4
:10208000F8B5ADF5006D04000D0016004FF4806149
:1020900000220DF58067380001F096F868464FF48D
:1020A000806101F003F9ADB2B6B2754300209FED37
:1020B000600ADFED5F0A9FED5E1ADFED5D1A002119
:1020C00009E00DF58062635C665C52F82660761C60
:1020D00042F82360491CA942F3DB00211DE06A4657
:1020E0000DF5806303EB810393ED002AB8EEC22A5D
:1020F00002EE905AF8EEE22A82EE222A02EB8103E7
:1021000083ED002A02EE101AB8EEC22A02EB810219
:10211000D2ED002A02EE220A491CB1F5807FDEDBF7
:10212000002234E0B0EE612A00EE412A22EE022ABB
:10213000F7EE002A72EEC12A62EE812A82EE222A8E
:10214000F4EE420AF1EE10FA20D5F0EE420A100049
:102150001CE0694601EB820393ED002A31EE021A7E
:1021600002EE102AB8EEC22A01EB8201D1ED002A5C
:1021700042EE221AB5EE401AF1EE10FA06D0B7EE92
:10218000002AB4EE421AF1EE10FACBD1521CB2F58D
:10219000807FDEDBC0B20DF5006D01B0F0BD70B523
:1021A000DFF84449DFF844593C225E212800FFF75C
:1021B00067FF207020785B2802DB5A20207004E043
:1021C0002078462801DA46202070002000E0401CDC
:1021D000010089B23B2929DA00210BE0DFF8103930
:1021E0000600B6B202FB06F21A440B009BB20026B0
:1021F000D65419E00A0092B25D2AE8DA5E220300A2
:102200009BB253432B440E00B6B29B5D2678B3427B
:10221000E4D3DFF8DC380600B6B202FB06F21A445B
:102220000B009BB2FF26D654491CE3E770BD0000AB
:10223000000000002DE9F84FDFF8B848B4F90000BD
:10224000012811D0DFF8B008B0F9000001280BD048
:10225000DFF8A808B0F90000012805D0DFF8A008D1
:10226000B0F90000022806D1DFF898080088401F66
:10227000DFF894180870DFF89458B5F900000128C9
:1022800011D0DFF88C08B0F9000001280BD0DFF87E
:102290008408B0F90000012805D0DFF86408B0F91F
:1022A0000000022806D1DFF85C080088401DDFF836
:1022B000681808703B269CE0DFF85408B0F900105D
:1022C000012940F09580002129800021DFF82C2889
:1022D00011803100C9B23BF81110C91CDFF83C284D
:1022E0003300DBB222F813103100C9B239F91110F2
:1022F0000A297DDA3100C9B209EB410131F9041C28
:102300000A2975DA3100C9B209EB410131F9081C1B
:102310000A296DDA002101805B203870032088F8DB
:1023200000000020DFF8F81708800020DFF8F4171D
:1023300008800020DFF8F01708600020DFF8EC17B5
:10234000088055E03000C0B23BF910003100C9B23E
:102350003AF911100818022190FBF1F0DFF8BC17D0
:102360003200D2B221F81200DFF88C07B0F9001069
:102370000129A1D1002121800021DFF898271180B7
:102380003100C9B23AF81110C91EDFF890273300A6
:10239000DBB222F813103100C9B239F911100A2941
:1023A00026DA3100C9B209EB410131F9021C0A29D0
:1023B0001EDA3100C9B209EB410131F9041C0A29C6
:1023C00016DA002101805B203870032088F80000B5
:1023D0000020DFF85C1708800020DFF8581708801D
:1023E0000020DFF8441708600020DFF8401708805D
:1023F000761E3000C0B20528C0F20482DFF838270C
:1024000000203100C9B222F81100DFF83017002097
:102410003300DBB221F81300022300E05B1CDFF87D
:10242000F876180097F800C0C0B2604535D25FF06A
:102430005E0CDFF8BCE63000C0B20CFB00F070446C
:1024400098465FFA88F810F808000028E6D13000B6
:10245000C0B20CFB00F0704498465FFA88F8404424
:102460004078FF28DAD13000C0B20CFB00FC0EEB44
:102470000C009C465FFA8CFC60448078FF28CDD12C
:10248000DBB2DFF8BC06B4465FFA8CFC20F81C30E7
:1024900001203300DBB222F813005B2300E05B1E57
:1024A000DFF8648698F800009C465FFA8CFC604573
:1024B00037D25FF05E0CDFF838E63000C0B20CFBBC
:1024C00000F0704499465FFA89F910F80900002875
:1024D000E5D13000C0B20CFB00F0704499465FFAC1
:1024E00089F9484410F8010CFF28D8D13000C0B257
:1024F0000CFB00FC0EEB0C009C465FFA8CFC60446D
:1025000010F8020CFF28CAD1DBB2DFF83806B44657
:102510005FFA8CFC20F81C3001203300DBB221F87C
:1025200013003000C0B232F9100001287CD1DFF86E
:102530001836B3F90000B4465FFA8CFC0FFA8CFC35
:1025400060453FF455AFB3F9000010F1010F5ED0C4
:102550003000C0B2B3F900C0BCF1010C604556DADE
:10256000B3F900C03000C0B2BCEB000CBCF1140FDA
:102570004DDADFF8CCC5DFF8D405B0F900E0300063
:10258000C0B23CF91000BEEB000E00EE10EAB8EE4F
:10259000C00AB3F900E03000C0B2BEEB000E00EE9E
:1025A00090EAF8EEE00A80EE200AB6465FFA8EFE68
:1025B0001EF1010E25E03000C0B23CF9100000EE23
:1025C000900AF8EEE00AF1460FFA89F93000C0B23D
:1025D000B9EB000901EE109AB8EEC11A41EE000AFB
:1025E000FDEEE00A10EE900AF1460FFA89F92CF898
:1025F00019000120F1460FFA89F922F819001EF19D
:10260000010E7046B3F9009000B24845D3DB3000AC
:10261000C0B21880DFF828053200D2B230F81200BC
:10262000DFF8282510800BE0DFF81C25B2F9003018
:102630003000C0B21B1A152B02DB5FF0FF30108098
:102640003000C0B231F91000012877D1DFF85429E9
:10265000B2F900003300DBB21BB298423FF4C8AEBF
:10266000B2F9000010F1010F5BD03000C0B2B2F936
:1026700000305B1E984254DAB2F900303000C0B22C
:102680001B1A142B4DDADFF8BC34DFF81C09B0F943
:1026900000C03000C0B233F91000BCEB000C00EEFB
:1026A00010CAB8EEC00AB2F900C03000C0B2BCEB2C
:1026B000000C00EE90CAF8EEE00A80EE200AB44664
:1026C0005FFA8CFC1CF1010C25E03000C0B233F93C
:1026D000100000EE900AF8EEE00AE6460FFA8EFED1
:1026E0003000C0B2BEEB000E01EE10EAB8EEC11A27
:1026F00041EE000AFDEEE00A10EE900AE6460FFAFF
:102700008EFE23F81E000120E6460FFA8EFE21F809
:102710001E001CF1010C6046B2F900E000B27045E9
:10272000D3DB3000C0B21080DFF818043100C9B22A
:1027300030F81100DFF8701808800BE0DFF864183B
:10274000B1F900203000C0B2121A152A02DB5FF086
:10275000FF300880DFF85498DFF8E8A3DFF8E0B333
:102760003000C0B23AF910003100C9B23BF9111083
:10277000401A00F0EDFE3100C9B229F81100B4F999
:10278000000001281CD1DFF88C03B0F900000128FB
:102790000AD13000C0B23BF81000DFF880133200DD
:1027A000D2B221F81200DFE53000C0B23AF81000D2
:1027B000C01EDFF868133200D2B221F81200D3E550
:1027C000B5F9000001287FF4BDADDFF83003B0F9A2
:1027D000000001280AD13000C0B23AF81000DFF83A
:1027E0003C133200D2B221F81200BDE53000C0B275
:1027F0003BF81000801CDFF824133200D2B221F81D
:102800001200B1E5BDE8F18F2DE9F0412F20002243
:1028100000203B2311E0DFF89847DFF800131D008C
:10282000EDB231F915501900C9B2615C01FB052206
:102830001900C9B2615C40185B1E1900C9B21529A4
:10284000E9DA002803D1DFF86C07007825E0B2FB55
:10285000F0F8DFF86467DFF85C77387800F07EFE28
:10286000DFF8D427DFF8D43700F086FE04000D002F
:102870005FFA88F8404600F071FEDFF8C427DFF801
:10288000A03800F079FE22002B0000F04BFF01F091
:1028900079F83070307838703078BDE8F08180B5E4
:1028A000FFF7B2FFC0B2D0F12F00DFF87818088030
:1028B00001BD70B55B2133E00020DFF8703818707F
:1028C000521E1000C0B2062829DB5E23884C10007F
:1028D000C0B2584320440D00EDB2405D0028EBD15A
:1028E0001000C0B2584320440D00EDB2284410F847
:1028F0005E0CFF28E0D11000C0B203FB00F304EB34
:1029000003000B00DBB2184410F8BC0CFF28D3D135
:102910000120DFF818381870DFF814080270491E1B
:10292000784A0800C0B2B2F900301E33984201DB89
:102930003922C6E7002333E00020DFF8F847207093
:10294000491E0800C0B2062829DB5E24684D080035
:10295000C0B2604328441E00F6B2805D0028EBD16F
:102960000800C0B2604328441E00F6B2304410F89C
:102970005E0CFF28E0D10800C0B204FB00F405EBB8
:1029800004001C00E4B2204410F8BC0CFF28D3D192
:102990000120DFF8A0472070DFF89C0701705B1C66
:1029A000B2F900001E381900C9B2884201DB392192
:1029B000C7E702212EE00020DFF880371870521C94
:1029C0001000C0B25C2824DA5E23494C0800C0B273
:1029D000584320441500EDB2405D0028EBD10800BB
:1029E000C0B2584320441500EDB228444078FF2877
:1029F000E1D10800C0B203FB00F304EB03001300B5
:102A0000DBB218448078FF28D5D10120DFF82C27CD
:102A10001070491C0800C0B2102801DA0322CFE769
:102A2000DFF810170878012828D1DFF800070278AE
:102A3000DFF8080700780243D2B2002A1ED13548D9
:102A400002882E480088024312B2002A16D10120C3
:102A5000DFF8EC160870DFF8E0463A232F48B0F8AC
:102A600074000200D2B22178002000F0EBFA237843
:102A700000220021002000F0E5FA33E00878002869
:102A800028D1DFF8A8060078012823D1DFF8AC06AA
:102A9000007800281ED11F4801881848008801438B
:102AA00009B2002916D10120DFF898160870DFF866
:102AB00080463A231948B0F874000200D2B2217857
:102AC0005D2000F0BFFA23785D2200215D2000F038
:102AD000B9FA07E00020DFF8681608700020DFF878
:102AE0006416087070BD00003B620208603902087D
:102AF000582302080A6202081E6202081C620208C9
:102B000002620208382302084A2302080C62020803
:102B1000206202081A6202084B230208505B020876
:102B20001662020818620208606102082262020846
:102B30001262020814620208405C0208B85C0208D3
:102B4000605A0208D85A02083A2302083C230208B5
:102B5000F8B50A2338E0B1F90000012872D15E25EA
:102B6000DFF8E4651800C0B2684330442700FFB2C4
:102B7000C05D002866D11800C0B268433044270009
:102B8000FFB238444078FF285CD11800C0B205FB82
:102B900000F506EB05002500EDB228448078FF28FB
:102BA00050D1DFF8A805E4B20480B0F90040DFF8A6
:102BB000A005B0F90000241A0B3C1D2C03D2022002
:102BC0000880012010805B1C1800C0B214283BDA7A
:102BD000DFF8801500200880DFF87C2500201080B9
:102BE00014242000C0B25B28EDDAB1F900000028FF
:102BF000B1D15E25DFF850651800C0B2684330449B
:102C00002700FFB2C05D00281CD11800C0B2684385
:102C100030442700FFB238444078FF2812D1180012
:102C2000C0B205FB00F506EB05002500EDB2284417
:102C30008078FF2806D12000C0B2DFF81455288024
:102C400001200880641CCCE7DFF81015B1F90020E2
:102C5000143200E0521CB1F900001E3082422CDA1E
:102C60003B2304E00020DFF8F84420805B1E152B96
:102C70001DDB5E24DFF8D05404FB03F02844805CA5
:102C80000028EFD104FB03F02844104410F85E0C38
:102C9000FF28E7D104FB03F405EB0400104410F80F
:102CA000BC0CFF28DED10120DFF8B4341880DFF837
:102CB000B004B0F900000028CCD0B1F90020143ADB
:102CC00000E0521EB1F900001E3890422CDA3B237E
:102CD00004E00020DFF88C4420805B1E152B1DDBF8
:102CE0005E24DFF8645404FB03F02844805C002871
:102CF000EFD104FB03F02844104410F85E0CFF28C9
:102D0000E7D104FB03F405EB0400104410F8BC0CFD
:102D1000FF28DED10120DFF84C341880DFF84404AE
:102D2000B0F900000028CCD0DFF82C24B2F9000064
:102D3000012822D1DFF81C04B0F9000002281CD1C0
:102D4000DFF81C04B0F90000012816D1DFF81404E4
:102D5000B0F90000002810D1DFF80C04B0F9000031
:102D600001280AD0DFF80404B0F90000002804D1DB
:102D70000120DFF8FC23108025E0B2F900000128D3
:102D800021D1DFF8D003B0F9000002281BD1DFF811
:102D9000D403B0F90000012815D1DFF8C403B0F95D
:102DA000000000280FD1DFF8C803B0F900000128A7
:102DB00009D0DFF8C003B0F90000002803D10120DA
:102DC000DFF8A4231080DFF8A003B0F90000012889
:102DD00058D10888411F33E0521E1000C0B20028AD
:102DE0002DD05E23DFF860431000C0B2584320446A
:102DF0000D00EDB2405D0028EED11000C0B2584386
:102E000020440D00EDB2284490F85E00FF28E3D185
:102E10001000C0B203FB00F304EB03000B00DBB2B5
:102E2000184490F8BC00FF28D6D1DFF84C03D2B28A
:102E300002800088D0F13C00DFF840231080491E5A
:102E40000800C0B2232801DB3B22C6E7DFF830438D
:102E5000DFF82853B5F90000B4F90010401A00F06B
:102E600077FB14280BDBDFF81C030168491C0160A9
:102E70000068022803D10120DFF80C13088028889D
:102E800020805DE0DFF8E802B0F90000012857D1AA
:102E90000988491D33E0521E1000C0B200282DD011
:102EA0005E23DFF8A4421000C0B2584320440D0056
:102EB000EDB2405D0028EED11000C0B2584320446E
:102EC0000D00EDB2284490F85E00FF28E3D1100019
:102ED000C0B203FB00F304EB03000B00DBB21844A9
:102EE00090F8BC00FF28D6D1DFF8A002D2B2028051
:102EF0000088D0F13C00DFF898221080491C0800BF
:102F0000C0B24B2801DA3B22C6E7DFF88842DFF87F
:102F10008052B5F90000B4F90010401A00F018FB17
:102F200014280BDBDFF85C020168491C01600068B3
:102F3000022803D10120DFF8601208802888208051
:102F4000DFF85802DFF8581291ED000AB8EEC00A17
:102F5000D0ED020AB4EE600AF1EE10FA0AD50021B3
:102F600081600120DFF80C1208800020DFF81412C5
:102F7000086016E00968494200EE101AB8EEC00A6F
:102F8000D0ED020AF4EE400AF1EE10FA09D5002164
:102F900081600120DFF8D41108800020DFF8E411FF
:102FA0000860F1BD3E23020840230208C85B020806
:102FB000602202084F2302084C23020830B400218B
:102FC000784B1A780FE078481400E4B230F9140016
:102FD000002807D175481400E4B230F91400002825
:102FE00000D1491C521E724804781500EDB2AC4263
:102FF000E9D3704A1B7800781B1A13706E4BC9B264
:1030000064204143107891FBF0F000EE100AB8EE16
:10301000C00A83ED000A93ED000ADFED430AB4EE27
:10302000600AF1EE10FA05DB012064490870012006
:103030006349087030BC70479A9999999999B93F3A
:10304000CDCCCCCCF0B404002000C0B25D2801DBB4
:103050005D2404E02000C0B2002800D10024080054
:10306000C0B23B2801DB3B2104E00800C0B20028CD
:1030700000D100211000C0B25D2801DB5D2204E018
:103080001000C0B2002800D100221800C0B23B28B6
:1030900001DB3B2304E01800C0B2002800D100236C
:1030A0000E00180005003700EDB2FFB2BD4202D29B
:1030B0003500060028002AE02F00FFB2002F1ED1A5
:1030C00000251CE03700FFB20D00EDB27F1B9446D7
:1030D0005FFA8CFC2500EDB2BCEB050C0CFB07F78E
:1030E0009C465FFA8CFC0D00EDB2BCEB050C97FB27
:1030F000FCF565192F00FFB25E2FDDDB5E25EDB21A
:10310000304FB4465FFA8CFC27F81C50761C050043
:103110003700EDB2FFB2BD42D4D2F0BC7047000020
:10312000CCCCEC3FFC6102080100BE423D620208CB
:10313000406202083C6202083F6202083E620208E6
:10314000416202084262020858230208086202082B
:1031500006620208026202080462020838230208BA
:1031600000620208FE6102080A6202082062020888
:103170000C6202081E6202080E6202081262020855
:1031800014620208606102081A62020810620208F2
:1031900016620208186202081C6202082061020816
:1031A0009C2202084D230208B85C0208405C020819
:1031B0004E23020843620208646102084462020866
:1031C0004A620208505B020862F30F2262F31F4258
:1031D000401810F0030308D0C91A1FD3DB0748BFFB
:1031E00000F8012D28BF20F8022D130030B414463A
:1031F0001546103928BF20E93C00FAD8490728BFF6
:1032000020E90C0048BF40F8042D890028BF20F8B1
:10321000022D48BF00F8012D30BC7047C91818BFF7
:1032200000F8012DCB0728BF00F8012D7047F0B43E
:103230000246106895681318506803EB5004C007E5
:1032400048BF4D44A3422DD013F8016B16F0030084
:1032500004BF13F8010BC01C31090F2907D113F863
:10326000011B0F3103E013F8017B05F8017B401EC1
:10327000F9D10029E6D013F8010BC6F38106032E1D
:1032800008BF13F8016B00EB0620404228440026DB
:10329000B71E8F421EBF10F8017B05F8017B761C1C
:1032A000F6D1CFE7F0BC02F10C007047002200F02D
:1032B00085BB0268531C0360117070479B48B2EED7
:1032C000030A80ED000AF7EE080AC0ED010A0021AA
:1032D00081609FED921A80ED0D1A954880ED000AED
:1032E000C0ED010A0021816080ED0D1A91489249DC
:1032F00001609FED8B0A80ED030A9049816080EDAB
:10330000040A8F488F4901605FF0824181608E48D6
:103310008E490160002181607047000009B212B23D
:10332000891A00EE101AB8EEC00A80ED090A90ED75
:10333000090ADFED7C0A20EE200AD0ED0A0A9FED93
:103340007A1A00EE810ABDEEC00AB8EEC00A80ED1E
:10335000090A90ED090AD0ED0A0A30EE600AD0EDB4
:10336000000A20EE200A80ED050A90ED010AD0ED5A
:10337000090A20EE200A80ED060A90ED0A0AF8EE0E
:10338000000A90ED091A00EE201A90ED0B0A31EEBA
:10339000000AD0ED020A20EE200A80ED070A90ED27
:1033A000050AD0ED060A30EE200AD0ED070A30EE0D
:1033B000200AD0ED0C0A30EE200A80ED0C0A816A5A
:1033C000C162416A816290ED0C0A704709B212B283
:1033D000891A00EE101AB8EEC00A80ED090A90EDC5
:1033E000090ADFED500A20EE200AD0ED0A0A9FED0F
:1033F0004E1A00EE810ABDEEC00AB8EEC00A80ED9A
:10340000090A90ED090AD0ED0A0A30EE600AD0ED03
:10341000000A20EE200A80ED050A90ED010AD0EDA9
:10342000090A20EE200A80ED060A90ED0A0AF8EE5D
:10343000000A90ED091A00EE201A90ED0B0A31EE09
:10344000000AD0ED020A20EE200A80ED070A90ED76
:10345000050AD0ED060A30EE200AD0ED070A30EE5C
:10346000200AD0ED0C0A30EE200A80ED0C0A816AA9
:10347000C162416A816290ED0C0A704738B5040060
:10348000150009B200EE101AB8EEC00A84ED090A60
:1034900094ED090ABDEEC00A10EE100A00F058F8CB
:1034A00000EE100AD4ED000A94ED091A60EE810ACC
:1034B000B8EEC00A94ED091A20EE010A94ED031A41
:1034C00040EE010AC4ED050A94ED090AD4ED0A0A9A
:1034D00030EE600AD4ED020A20EE200A84ED070ADD
:1034E0002DB200EE105AB8EEC00A1248D0ED040A10
:1034F00020EE200A84ED080A94ED050AD4ED070AAF
:1035000030EE200AD4ED080A30EE200A84ED0C0AD1
:10351000606AA06294ED0C0A31BD000000002043F7
:103520000AD7233CCDCC4C3FCDCC4C3E205E02088C
:103530005C5E0208985E0208CDCCEC4000001C42A4
:10354000D45E020800006040105F0208CDCCCCBD04
:10355000012802DA002800D54042704750B1B0FA85
:1035600080F18840C91CC1F58461090501EBD021B7
:10357000400570470146704730B540F2FF7C1CEAB9
:1035800011541DBF1CEA1355644565453FE064199D
:1035900081EA030C6FF35F530CF0004C43F480138B
:1035A000C90241F0004141EA505EC5021100A5FB8D
:1035B000020200284FF00000EEFB01204FF0000156
:1035C000E3FB052118BF42F00102401800214941E8
:1035D000E3FB0E01A4F580640D0302D29218404172
:1035E000494154F1010470DD450872F1004250F187
:1035F000000051EB0451A1F5801102D441EA0C0105
:1036000030BD40F2FF7E4CEA0E51002030BD0CEA86
:103610001355644518BF654581EA030C0CF0004C56
:1036200041D050EA410E1CBF52EA430E02E061460F
:10363000002030BD24422C441BD15FEA050EF6D099
:10364000090302BF01460020AEF1140EB1FA81F564
:10365000AEEB050401FA05FE0C35C5F1200100FAB8
:1036600005F5C8404EEA000E6FF35F5343F4801334
:103670009CE733F00043B3FA83F504BFB2FA82FE4D
:1036800075440B3D641BB5F1200E2FBF02FA0EF3FB
:10369000AB40C5F1200E22FA0EFE38BF43EA0E03FE
:1036A000AA40641C7CE750EA410E14BF52EA430E64
:1036B0006FF000014FF4001515EB430F8EBF194654
:1036C00015EB410F9DE7B4D830BDD4F10104B4F13E
:1036D00020050FDAC4F12005520828BF42F001028C
:1036E00010FA05FE01FA05F57244E2BFE0402843F6
:1036F000E1400FE0352C9ADCC5F1200452EA40028B
:1037000020FA05F218BF42F0010231FA05F0A1409B
:103710000A43002172F1004250F1000051EB0C010C
:1037200030BD000070B491EA030F4FF0004540F146
:10373000BF806B40841A71EB030604D26E40001BFD
:10374000B141121973414FF4001C1CEB410F34BFFF
:103750007CEB430683E00C0DA4EB1356362E00F3EE
:103760007C80012E45EAC32341DC43EA525312BF59
:10377000D20292025B08240545EAC12141EA505178
:10378000D2EBC020994125D407D1B0FA80F610FAC7
:1037900006F162D00020203608E0B1FA81F6B1408F
:1037A000C6F1200220FA02F21143B0404FEAF4744D
:1037B000B4EB465434F001064FEA74040AD8D6F547
:1037C0000016760D04F00044F04061FA06F2504015
:1037D000F1404840C00A40EA415021F0004128BF72
:1037E0005FEA500550F1000044EBD12135E0DB0ADF
:1037F00045EAC121C90AB6F120050EDD42EA0242BE
:10380000120CC5F1200603FA06F6EB4042EA060563
:103810006D42984161F100010DE062FA06F5F24057
:10382000554063FA06FC82EA0C02F3405A406D42AE
:10383000904161EB030111F4801F05D1641E620504
:1038400002D06D004041494121F48011430875F1D7
:10385000004350F1000041EB045170BC70471CEB79
:10386000410F15D223F0004352EA43060BD04FEA32
:103870004C0CBCEB410F04D80C0D661E342EB7DD8A
:10388000EBE7801A994150EA410608BF0021E4E7BE
:1038900008BF1CEB430F28BF6FF00001DDE70000FD
:1038A00070B491EA030F4FF000457FF543AF6B40D2
:1038B000841A71EB030603D2001BB1411219734144
:1038C0004FF4001C1CEB410F34BF7CEB430442E07F
:1038D0000C0DA4EB1356352E4FDC45EAC323DB0A4F
:1038E00045EAC121C912B6F120050DDD63FA05F6DE
:1038F000EB4086EA0305124218BF45F00105C018E7
:1039000051F100010CD213E062FA06F5F240554085
:10391000F3415A40B340F3405A408018594107D30D
:1039200049085FEA30005FEA350528BF45F0010528
:1039300001F58011420875F1004250F1000041EBA1
:1039400004514E0016F5001F70BC38BF70470020B0
:10395000090D090570471CEB410F10D252EA4306CE
:103960000BD0BCEB410F05D80C0DAB43661E342EBB
:10397000B6DD02E0AB438018594170BC704770BCA3
:1039800070470000C1F30A5340F21E42D31A0CDD07
:10399000CA0283F3070342EA505242F00042DA407F
:1039A00002EBE17282EAE17070476FEAE17203F2C2
:1039B000E13008B182F000407047000000B500BF60
:1039C000130096469446103928BFA0E80C50FAD848
:1039D0005FEA417C28BF0CC048BF40F8042BC907F0
:1039E00028BF20F8022B48BF00F8012B00BD0000C3
:1039F00040F0200070472DE9F14FB0B0914604919E
:103A00000DF142013A9A21914A7000210DF195027F
:103A10001E460D912F920BE019F8011B0498309A65
:103A200090470028049000F063850D98401C0D908D
:103A300099F8000050B12528EED10021002207910D
:103A4000089209910A920B910C9204E00D9800F0F3
:103A500051BD41F0010119F8010F2028F9D02328A8
:103A60000CD02B2804D02D2805D0302809D00BE00D
:103A700041F00201EFE741F00401ECE741F00801F9
:103A8000E9E741F01001E6E72A280DD1326852F843
:103A9000040B326000280F9003D540420F9041F094
:103AA000040109F1010914E00F92DFF8A83B0AE0D4
:103AB0000F98984205DA00EB800402EB4402303A9A
:103AC0000F9209F1010999F80020A2F130000A28AB
:103AD000EED399F800002E2803D04FF0FF320E925B
:103AE00027E019F8010F2A2807D1306850F8042B75
:103AF00030600E9209F101091BE02D280CBF09F17D
:103B00000109002000220E92DFF8484B0BE040B97B
:103B10000E9AA24205DA02EB820503EB4503303B25
:103B20000E9309F1010999F80030A3F130020A2A35
:103B3000EDD3ADF840100FF6603099F8001000F0AA
:103B4000E1FD08B119F8010B8DF842009DF8420023
:103B5000682805D199F8000068280CD1622106E098
:103B60006C2804BF99F800006C2804D171218DF8ED
:103B7000421009F1010912A9069119F8012B8DF8DB
:103B800000201746B7F1250026D02038022840F241
:103B90007981133800F0EC830B3800F07684401EF6
:103BA00000F02B84401E022840F26C81001F00F0C0
:103BB0002484401F00F0EC80401E00F0D983401E9A
:103BC00000F0D780C01E0CD0801E00F0D183C01E34
:103BD00000F0CE8300F062BC01220792252100F0A4
:103BE0005ABC306850F8044B3060002C059440F00B
:103BF000AD8021994878002800F0A4804FF0FF3470
:103C00000FF6CC2000F08AFD241A40F0718400F0F9
:103C100053BC01236A4602A9384600F025FD00285E
:103C200040F06684641EF4D13097079C0DF148087B
:103C300074B1309F18F8011B0498B847002804900D
:103C400000F056840D98401C641E0D90F2D1309700
:103C50000A9C3021002C8DF800100CDD309F0123D0
:103C60006A4602A9384600F0FFFC002840F0408474
:103C7000641EF4D13097DDF81480089C74B1309F35
:103C800018F8011B0498B8470028049000F030840D
:103C90000D98401C641E0D90F2D130970B9C302182
:103CA000002C8DF800100CDD309F01236A4602A91C
:103CB000384600F0D9FC002840F01A84641EF4D184
:103CC000309705980899099C00EB010874B1309F62
:103CD00018F8011B0498B8470028049000F00884E5
:103CE0000D98401C641E0D90F2D130970C9C302131
:103CF000002C8DF800100CDD309F01236A4602A9CC
:103D0000384600F0B1FC002840F0F283641EF4D184
:103D100030979DF8400041077FF58AAE2020002DA6
:103D20008DF800007FF784AE309C01236A4602A91B
:103D3000204600F099FC002840F0DA836D1EF4D193
:103D4000309475E60FF6A4100590B5E30E9D002D96
:103D500004D5204600F002FD044608E02A46002172
:103D6000204600F017FD002814BF041B2C460894C1
:103D7000A2E3316851F8040B316020F00004002107
:103D800021F0FF35CDE9024512AB0593782178E3A8
:103D90002199487820B14FF0FF340FF6041031E735
:103DA0009DF84200622853D0682815D06A2836D082
:103DB0006C2806D071283CD0742825D07A2818D0D9
:103DC00053E0316851F8040B3160002857D14FF0AF
:103DD000FF340FF6E40015E7316851F8040B316049
:103DE00020B94FF0FF340FF6D0000BE70D9901809A
:103DF00062E3316851F8040B316000283FD14FF085
:103E0000FF340FF6B400FDE6316851F8040B316061
:103E1000002834D14FF0FF340FF69C00F2E63168F1
:103E200051F8040B316070B94FF0FF340FF6880081
:103E3000E8E6316851F8040B316020B94FF0FF34E7
:103E40000FF67400DEE60D9AD317C0E9002333E3C2
:103E5000316851F8040B316020B94FF0FF340FF690
:103E60005800CFE60D99017026E3316851F8040B34
:103E7000316020B94FF0FF340FF63C00C2E60D99D7
:103E8000016019E39DF842004C2807BF3168CA1D44
:103E90003068C21D22F007023260D2E90001083208
:103EA0003260CDE90201C80F02D007982D210AE047
:103EB000BDF84000810702D507982B2103E0C00719
:103EC00005D50798202112AA1154401C079012A86A
:103ED00007994518DDE90201CDE92201059525ACD8
:103EE0000E98002848BF062007D402BF9DF80000A6
:103EF00040F02000672801D101200E90DDE9020189
:103F00004A0042EAD07253154FEAE27B4FF0FF328B
:103F1000934508BF93420FD1090341EA10510003B2
:103F2000002908BF002807D0613F03201A2F0890FE
:103F300017D30FF2C0710FE0DDE902014A005215FC
:103F400012F1010F10D108030ED1613F03201A2F87
:103F500008901AD30FF2A4710322284600F046FC01
:103F6000AAE20FF28C71F7E7DDE9020101AA00F085
:103F700091FCCDE9020120F0000231F0004308BFBE
:103F8000002A05D100270025B7E00FF26C71E3E7A6
:103F90000199DFF8C42647F29750414391FBF2F2B2
:103FA0000192DDE92245C2F10702002A25F0004511
:103FB00004DD2046294600F02AFB0BE05242002097
:103FC000DFF8981600F023FB02460B4620462946F0
:103FD00000F098FC04469DF8000040F0200A0D46D1
:103FE000BAF1660F06BF019800F10A084FF0060803
:103FF0000E988044B8F1140FC8BF4FF01408302059
:104000008DF894000DF19507B8F1000F36DD2046CC
:10401000294600F09BFD01460A4607F108030420EB
:104020000A27B2FBF7F707EB870EA2EB4E023032FE
:1040300003F8012C0A22B7FBF2F202EB820EA7EB87
:104040004E073037401E03F8027DE9D1A8F1080879
:10405000B8F1000F03F10807D6DD0846FFF77EFA36
:1040600002460B4620462946FFF71AFC0022DFF8DD
:10407000F035FFF781FA04460D46C8E72F983F1A3E
:104080000DF1950404E00198401E7F1E0190641C10
:1040900020783028F7D0BAF1660F02D10198401C81
:1040A00004E0BAF1650F0CBF012000200E99401802
:1040B0008742B8BF781E00281DD4B84204DA215CBC
:1040C0003429C8BF392100DC30210246631E9D1807
:1040D00000E0401E15F80179521E8F42F9D03929AF
:1040E00002D1A15C491CA154002A04D50199491CA4
:1040F0001C46401C01910746019D9DF80080DDF89B
:1041000038A038B2002802DC01270FF2F45448F03E
:104110002000662808BF6D1C17D067280FFA85FBA2
:104120005AD11BF1040F43DBD34541DA9DF840001F
:104130006D1C010703D438B25045D8BF824628B25F
:10414000BAEB000A48BF4FF0000A0FFA85F8B8F141
:10415000000F00F3AA800898411C089130220599AD
:104160000A54BAF1000F03DC9DF84000010705D5A1
:104170000898411C08912E2205990A541AEB080F41
:10418000B8BFCAF100052DB26842AA443AB20B90FA
:104190009245B8BF5746059B08983FB209973A46E3
:1041A0002146184400F022FBAAEB07000C90C8E05F
:1041B00038B2504504DA9DF840100A0758BF8246CD
:1041C000BAF1010A48BF4FF0000AB8F1670F0CBFFF
:1041D0004FF065084FF045080898411C0891BAF166
:1041E000000F059914F8012B0A5403DC9DF84000D8
:1041F00001071BD50898411C08912E2205990A54E5
:10420000BAF1000F12DD7F1E38B28245B8BF5746A3
:104210000598089B3AB22146184400F0E7FA08983E
:104220003FB238180890AAEB07000B900598089940
:104230000844BBF1000F80F8008003D42B224270A9
:10424000811C04E02D2141705D46811C6D420020DF
:1042500022AA0A2409E02B4693FBF4F505EB850717
:10426000A3EB470302F8013B401C2DB2002DF2DC0A
:10427000012806DC48F02002652A04BF302201F83C
:10428000012B002822AA08D1302001F8010B06E0FA
:10429000401E135C303301F8013B0028F8DC059A1E
:1042A00008981044091A09914BE038B229B28842A3
:1042B0001DDA0598089B3AB22146184400F096FA98
:1042C00008993FB279180891A8EB0700BAF1000FDE
:1042D0000B9003DC9DF84000020705D5059A2E20BF
:1042E00050540999491C0991CDF830A029E005984E
:1042F000089B2AB22146184400F078FA08987F1BE0
:104300004044BAF1000F089003DC9DF840100A0702
:1043100004D5411C08912E2205990A5438B28245D1
:10432000B8BF57460598089B3AB204EB08011844F9
:1043300000F05CFA08983FB23818AAEB070708901B
:104340000B979DF8400000F01400102840F0B48056
:10435000079A08980B99821809988A1882180C985D
:104360000F998018884280F2A780081A0A90A3E06B
:104370009DF84200622808D068280CD06A2810D026
:104380006C2818D071280CD015E0316851F8040B56
:104390003160C0B213E0316851F8040B316080B273
:1043A0000DE03068C21D22F007023260D2E9000140
:1043B0000832326004E0316851F8040B31600021AA
:1043C000CDE902019DF84000010754D5DDE9022343
:1043D000002B08BF002A4ED09DF8000040F02000BE
:1043E000782848D1079812A930220A54401C431C4F
:1043F0009DF8002007930A543DE09DF84200622892
:1044000008D068280CD06A2810D06C2818D07128E1
:104410000CD015E0316851F8040B316040B213E064
:10442000316851F8040B316000B20DE03068C21DF4
:1044300022F007023260D2E900010832326004E063
:10444000316851F8040B3160C117CDE90201002930
:1044500002D507982D210AE0BDF84000810702D55A
:1044600007982B2103E0C00705D50798202112AA41
:104470001154401C079012A80799014405919DF81A
:10448000001002A800F039F816E00120079030680B
:1044900050F8041B30608DF848100DE001212522F2
:1044A0009DF8000007918DF8482028B19DF8000084
:1044B0008DF84900022107910F9D07990A986D1AFE
:1044C00008992D1A0B986D1A09992D1A0C986D1AC6
:1044D0009DF840102D1A48073FF5A7AB2021002D6D
:1044E0008DF800107FF7A1AB309F2C46FFF791BBF2
:1044F0004FF0FF3031B0BDE8F08F2DE9FC470746A3
:104500008A463C6950466F2808BF082505D0FFF74A
:104510006FFA782814BF0A251025D7E900013C2638
:1045200080468946BAF1640F18BFBAF1690F05D108
:10453000002903D5D8F1000869EB4909B9F1000F4A
:1045400008BFB8F1000F0CD1386B50B9082D3AD123
:1045500097F83800010736D530223B2684F83B20F7
:1045600031E08DF800A0404649462A46EB1700F09E
:10457000FFFA3032D0B2761E3A2801960EDAA255F2
:10458000404649462A46EB1700F0F2FA80465FEAB9
:10459000010908BFB8F1000F05D108E09DF800003F
:1045A0001218513AEBE7F868A1198842DBD3082DBD
:1045B00009D197F83800010705D5A05D302802D051
:1045C000761E3020A055C6F13C03BB61A119F960ED
:1045D000386B834208DAC31A3B624FF6EF70398FAB
:1045E00001403987BDE8F38700280ED597F83800D9
:1045F00000F01400102808D17A6B7969386A521AD1
:10460000121AD21A002AC8BF3A62BDE8F3872DE910
:10461000D04306460F4614464FF00008DFF844909A
:1046200012E0E00707D542464B4630463946FEF7D2
:10463000A3FF06460F464046494642464B46FEF714
:104640009BFF641080468946002CEAD130463946EB
:10465000BDE8D083CBCCCC0CA08601000000F03F9D
:1046600084D7974100002440F8B505460E4617460A
:104670001C4600205CB117F8011BB068A847B06069
:1046800030B1F06A401CF0620020641EF3D1F2BD2C
:104690004FF0FF30F2BD0000686A6C747A4C000085
:1046A0007072696E74665F733A20256E2064697358
:1046B000616C6C6F776564007072696E74663A2025
:1046C00062616420256E20617267756D656E74008D
:1046D0007072696E74665F733A206261642025733C
:1046E00020617267756D656E740000000000000047
:1046F0006E616E004E414E00696E6600494E460086
:1047000030000000C9B202788A421AB11CBF10F80A
:10471000012FF9E718BF00207047000080B500B9ED
:1047200006A005490B681BB122220021984701E031
:1047300000F036FB222002BDF4610208636F6E7345
:10474000747261696E742068616E646C65723A207F
:10475000626164206D6573736167650000F1010338
:10476000810704D010F8011B820781B1FAD10268D9
:10477000A2F10131914311F0803104BF50F8042FB0
:10478000F6E709BAB1FA81F100EBD100401CC01A7A
:1047900070470000C9B2830706D0521E22D310F81A
:1047A000013B9942F7D11FE0083A13D302F104020A
:1047B00041EA012141EA014150F8043B121F21BFA7
:1047C0004B40A3F1013C2CEA030C1CF0803FF3D0DA
:1047D000C9B2001F083210F8013B521E28BF91EAEF
:1047E000030FF8D818BF0120401E704762B38B0733
:1047F00008D0521E11F8013B00F8013B00F0248064
:104800008B07F6D1830740F0208000BF103A07D312
:1048100030B4B1E83810103AA0E83810F9D230BC02
:10482000530724BFB1E80810A0E8081044BF51F8AE
:10483000043B40F8043BD20724BF31F8022B20F898
:10484000022B44BF0B7803707047121F17D35B0015
:1048500009D151F8043B20F8023B1B0C121F20F831
:10486000023BF6D20BE051F8043B00F8013B1B0A77
:1048700020F8023B1B0C121F00F8013BF3D238BF9B
:10488000121D521E24BF11F8013B00F8013BF8D85D
:104890007047000010B5144600F002F8226010BD09
:1048A000C1F30A5343B14A0012F5001F28D2A3F204
:1048B000FE32A1EB0251704750EA410C20D001F0CA
:1048C000004C31EA0C01B1FA81F204BFB0FA80F376
:1048D000D2180B3AB2F120032CBF00FA03F1914039
:1048E00041EA0C013EBFC2F1200C20FA0CF319433F
:1048F0009040524240F2FD33D21A01EB035170470F
:1049000000227047F0B540F2FF7581EA030C0CF00D
:10491000004C15EA11541DBF15EA1357AC42AF42C3
:10492000E5E0BC41C1F31301C3F31303801A9941BD
:1049300043F4801304D2641E001849418018594181
:10494000C90241EA5051B1FBF3F603FB1611A2FB79
:104950000675D7EBC020A94102D2761E80185941B6
:10496000C90241EA5051B1FBF3FE03FB1E11A2FB49
:104970000E75D7EBC020A94103D2AEF1010E80180D
:104980005941890241EA9051760546EA8E2EB1FBE3
:10499000F3F603FB1611A2FB0675D7EB8020A941A5
:1049A00002D2761E80185941C90241EA50514EEA9E
:1049B000060EB1FBF3F603FB1611A2FB0675D7EB4F
:1049C000C020A94102D2761E80185941C90241EA8D
:1049D0005051B1FBF3F703FB1711A2FB0735D3EBE3
:1049E000C020A94167F100070CBF004247F0010752
:1049F00066F3D5274FEA1E31B80814F5806412DD3E
:104A0000BD0775F1004250EB0E5051EB045111F50A
:104A1000801F5CBF41EA0C01F0BD4CF07F6141F0AA
:104A2000E0410020F0BDBD076D0840EA0E5041F4A2
:104A30008011D4F10104B4F120060ADAC4F1200691
:104A40000200E04001FA06F3E1401843B24015438A
:104A50000EE0342C13DCC6F1200445EA40056D0855
:104A600020FA06F2154321FA06F0A1400D43002179
:104A700075F1004250F1000051EB0C01F0BD002037
:104A80005FEA0C01F0BDCFB992185B41B3FA83F72E
:104A900004BFB2FA82F6BF190B3FB7F120062FBF51
:104AA00002FA06F3BB40C7F1200622FA06F638BF29
:104AB0003343BA401CB1E419641E33E77F4231F03E
:104AC0000041B1FA81F404BFB0FA80F6A4190B3C9E
:104AD000B4F120062FBF00FA06F1A140C4F1200670
:104AE00020FA06F638BF3143A0403C1B1AE7AC421F
:104AF0001ABF05EA1357AF4212E050EA41061CBF45
:104B000052EA4306BFE750EA4107304661461CBF00
:104B100041EA0551F0BD52EA430C08BFC143F0BD64
:104B200000204FF4001616EB410F98BF16EB430F11
:104B300008BF16EB410F24BFC14305E016EB430F3E
:104B40000CBF61464CEA0551F0BD0000400D40F23B
:104B50001E4C40EAC120BCEB115C40F0004003D485
:104B60008CF30701C84070476FEAE170704700009E
:104B7000BBBBE1B1B2F5803F80F07E80022A1ED936
:104B80008C46B1FBF2F102FB11C31B0443EA104354
:104B9000B3FBF2FC02FB1C3380B240EA0343B3FBDD
:104BA000F2F002FB103240EA0C4000237047022A68
:104BB00005D98446B0FBF2F002FB10C270474AB13F
:104BC00005D100F0010249085FEA30007047002279
:104BD0000023704700F0E8B80B000200002100201D
:104BE0007047904271EB030CF6D3B3F5803F2FD2A0
:104BF000F0B5B3FA83F7B1FA81F4A7F10F0E3D1BBC
:104C00005340CEF1200602FA0EF2F3415340B5F1C3
:104C10000F0746D80F3C2C444140C4F12006A04069
:104C2000F1414140B1FBF3F603FB1611A2FB06452F
:104C3000001BA94102D2761E8018594180EA010268
:104C400021FA0EF362FA0EF200215A403046F0BD0E
:104C500030B4B1FBF3FC03FB1C11A2FB0C45001BA1
:104C6000A94103D2ACF1010C8018594130BC024675
:104C70000B46604600217047B2F1807F65D3F0B5E6
:104C8000B2FA82F7B1FA81F4C7F10F063D1B22FA9E
:104C900006F307F1110EF24120355A40B5F10F0726
:104CA000B8D94140C4F12006A040F1414140B1FBD8
:104CB000F3FC03FB1C11A2FB0C45001BA94103D212
:104CC000BCF1010C801859410F2F12D30F3FC903BB
:104CD00041EA5041B1FBF3F603FB1611A2FB064576
:104CE000D4EBC030A94102D2761E8018594146EA61
:104CF000CC3C07B34140C7F12006B840F1414140E8
:104D0000B1FBF3F603FB1611A2FB0645001BA941FC
:104D100002D2761E8018594180EA010221FA0EF370
:104D2000C7F1200462FA0EF20CFA07F05A402CFA8E
:104D300004F13043F0BD80EA010221FA0EF30021B4
:104D400062FA0EF260465A40F0BD8C46B1FBF2F1B9
:104D500002FB11C31B0243EA1063B3FBF2FC02FB2C
:104D60001C331B024CEA002043EA1063B3FBF2FC45
:104D700002FB1C331B024CEA002043EA1063B3FB26
:104D8000F2FC02FB1C331B024CEA002043EA1063D6
:104D9000B3FBF2FC02FB1C324CEA002000237047FC
:104DA000012000F003B800007047000080B5AFF3A9
:104DB0000080024A11001820ABBEFBE7260002006B
:104DC000D0F80803C005C00D704710F541710A689E
:104DD00052F480320A6010F541710A6832F4803270
:104DE0000A60D0F804037047C0F840127047D0F84A
:104DF0000802C005C00D7047D0F80802C0F3C030EB
:104E0000704738B505002800FFF7F1FF04002800BF
:104E1000FFF7F2FF0419002C01D1012000E000206F
:104E2000C0B232BD0068C0F38130002801D18020BB
:104E300000E040207047016851F000410160704778
:104E40002030026861F39B620260704780B5FFF713
:104E5000B7FF02BD80B5FFF7B8FF01BD40B2002823
:104E600004D0012808D003280BD00FE0202901D35B
:104E7000012000E000207047102901D30120FAE74B
:104E8000F8E7082901D30120F5E7F3E70120F2E76D
:104E9000F8B507000D0016001C002900380040B2CC
:104EA000FFF7DCFF012801D1012017E0380040B2F4
:104EB000022816D1B6F5803F11D2202C0FD2DFF890
:104EC000B40700EB85010A6866F317220A6000EB5D
:104ED0008500016864F3C70101600020F2BD012074
:104EE000FCE77FB2032F17D1B6F1807F12D2202CBE
:104EF00010D2DFF8840700EB85010A6802F0FF0298
:104F000052EA06220A6000EB8500016864F3C701DB
:104F10000160E2E70120E1E70120DFE770B504006E
:104F20000D0016003100280040B2FFF797FF01285E
:104F300001D101200EE0DFF84417200040B251F803
:104F400020006DB265F3092066F3070064B241F8F2
:104F50002400002070BD38B504000D002900200099
:104F600040B2FFF77BFF012801D1012010E0DFF8FC
:104F70001017086850F0004050F0407050F47F0067
:104F800064B264F3092065F3070008600868002034
:104F900032BD0100C02049B2002905D0022907D046
:104FA00004D3032906D006E0322004E03A2002E0D0
:104FB0006A2000E07220C0B270470100C02049B2F0
:104FC000002905D0022907D004D3032906D006E022
:104FD000312004E0392002E0692000E07120C0B2F5
:104FE00070470100C02049B2002906D0022908D02C
:104FF00005D3042909D006D307E0302005E0382086
:1050000003E0682001E07020FFE7C0B270470100B4
:10501000C02049B2002906D0022908D005D30429AE
:1050200009D006D307E0332005E0582003E06B20C9
:1050300001E0BF20FFE7C0B270470100002049B285
:10504000002905D0022907D004D3032906D006E0A1
:10505000132004E0132002E0132000E0132040B2EC
:1050600070470100002049B2002905D0022907D06D
:1050700004D3032906D006E0132004E0132002E045
:10508000132000E0132040B270470100002049B215
:10509000002906D0022908D005D3042909D006D357
:1050A00007E0132005E0132003E0132001E01320A4
:1050B000FFE740B270470100002049B2002906D046
:1050C000022908D005D3042909D006D307E013200C
:1050D00005E0002003E0132001E00020FFE740B2DC
:1050E0007047010049B2002905D0022907D004D336
:1050F000032906D006E0222004E0232002E021203C
:1051000000E0202040B2704730B4DFF8782503007B
:105110005BB2D35C0C00E4B2A34200F0A2800B00AF
:10512000DBB2082B02D0102B47D098E0DFF85036C6
:10513000040064B253F82440246834F44044050069
:105140006DB253F825502C60040064B253F824402B
:10515000D4F800426409640105006DB253F825508B
:10516000C5F80042040064B253F82440D4F8004269
:1051700054F0070405006DB253F82550C5F80042FD
:10518000040064B253F82440D4F800436409640175
:1051900005006DB253F82550C5F80043040064B211
:1051A00053F82440D4F8004354F0070405006DB2CE
:1051B00053F82530C3F8004351E0DFF8C43504004C
:1051C00064B253F82440246834F4404405006DB2BE
:1051D00053F825502C60040064B253F8244024682E
:1051E00054F4804405006DB253F825502C6004003F
:1051F00064B253F82440D4F8004264096401050005
:105200006DB253F82550C5F80042040064B253F85B
:105210002440D4F8004254F00F0405006DB253F856
:105220002550C5F80042040064B253F82440D4F875
:1052300000436409640105006DB253F82550C5F8B8
:105240000043040064B253F82440D4F8004354F0FF
:105250000F0405006DB253F82530C3F8004340B287
:10526000115430BC7047F8B504000E00082120002E
:1052700040B2FFF749FFDFF80C55200040B2285636
:10528000042810D0200040B22856C0B2C010DFF869
:10529000F81411EBC0110120220052B2AA5C12F0E6
:1052A000070290400860DFF8D874200040B257F839
:1052B0002000FFF7CFFDF6B23100200040B257F8D2
:1052C0002000FFF791FD200040B257F82000FFF7C3
:1052D000A9FD0600200040B257F82000FFF787FD27
:1052E0008642F0D0200040B257F82000FFF789FD39
:1052F0000028F7D0200040B257F82000FFF7A6FDA5
:105300000028F7D0200040B2285604280FD02000F3
:1053100040B22856C0B2C010DFF8701411EBC011B3
:10532000012064B22A5D12F0070290400860F1BDCE
:10533000F8B504000E001021200040B2FFF7E4FE93
:10534000DFF84054200040B22856042810D0200036
:1053500040B22856C0B2C010DFF82C1411EBC011B7
:105360000120220052B2AA5C12F0070290400860AD
:10537000DFF80C74B6B23100200040B257F82000BC
:10538000FFF732FD200040B257F82000FFF74AFD3A
:105390000600200040B257F82000FFF728FD8642A3
:1053A000F0D0200040B257F82000FFF72AFD002877
:1053B000F7D0200040B2285604280FD0200040B279
:1053C0002856C0B2C010DFF8C41311EBC011012081
:1053D00064B22A5D12F0070290400860F1BD2DE929
:1053E000F84307000D0014001021380040B2FFF709
:1053F0008BFEDFF89063380040B23056042810D09E
:10540000380040B23056C0B2C010DFF87C1311EB48
:10541000C01101203A0052B2B25C12F00702904073
:105420000860DFF85C832988380040B258F8200013
:10543000FFF7DAFCAD1C380040B258F82000FFF747
:10544000F1FC8146380040B258F82000FFF7CFFC4D
:105450008145F0D0641E002CE3D1380040B258F8EA
:105460002000FFF7CEFC0028F7D0380040B23056BD
:1054700004280FD0380040B23056C0B2C010DFF858
:105480000C1311EBC01101207FB2F25D12F0070284
:1054900090400860BDE8F1832DE9F04104000F0061
:1054A00016000821200040B2FFF72EFEDFF8D4528C
:1054B000200040B22856042810D0200040B22856C0
:1054C000C0B2C010DFF8C01211EBC01101202200E1
:1054D00052B2AA5C12F0070290400860DFF8A08286
:1054E000FFB23900200040B258F82000FFF77CFCE2
:1054F000200040B258F82000FFF794FC070020007D
:1055000040B258F82000FFF772FC8742F0D0F6B2A4
:105510003100200040B258F82000FFF765FC200061
:1055200040B258F82000FFF77DFC0600200040B292
:1055300058F82000FFF75BFC8642F0D0200040B214
:1055400058F82000FFF75DFC0028F7D0200040B29B
:1055500058F82000406AC007F8D4200040B228560E
:1055600004280FD0200040B22856C0B2C010DFF887
:105570001C1211EBC011012064B22A5D12F0070267
:1055800090400860BDE8F0812DE9F84306008946A7
:1055900015001C000821300040B2FFF7B5FDDFF810
:1055A000E471300040B23856042810D0300040B2C8
:1055B0003856C0B2C010DFF8D01111EBC011012075
:1055C000320052B2BA5C12F0070290400860DFF875
:1055D000B0815FFA89F94946300040B258F820009E
:1055E000FFF702FC300040B258F82000FFF71AFC29
:1055F0008146300040B258F82000FFF7F8FB8145A3
:10560000F0D02978300040B258F82000FFF7ECFBCA
:105610006D1C300040B258F82000FFF703FC8146B3
:10562000300040B258F82000FFF7E1FB8145F0D090
:10563000641E002CE5D1300040B258F82000FFF77E
:10564000E0FB0028F7D0300040B2385604280FD0D5
:10565000300040B23856C0B2C010DFF8301111EB44
:10566000C011012076B2BA5D12F0070290400860C6
:10567000BDE8F18300180040001C0040000C004011
:1056800000040040DC6102082DE9F84380460D006B
:1056900016001C000821404640B2FFF735FD394F87
:1056A000404640B2385604280FD0404640B23856E3
:1056B000C0B2C010344911EBC0110120424652B2B1
:1056C000BA5C12F0070290400860DFF8B490EDB2C7
:1056D0002900404640B259F82000FFF785FB4046BC
:1056E00040B259F82000FFF78CFB0028F7D0404665
:1056F00040B259F82000FFF7A9FB0028F7D0404638
:1057000040B259F82000FFF7A5FB0021404640B207
:1057100059F82000FFF768FB404640B259F82000D6
:10572000FFF76FFB0028F7D0404640B259F8200041
:10573000FFF78CFB0028F7D0404640B259F8200014
:10574000D0F840033070761C641E002CDDD140463A
:1057500040B23856042810D0404640B23856C0B245
:10576000C0100A4911EBC01101204FFA88F817F850
:10577000082012F0070290400860BDE8F1830000A5
:1057800000230208D86102080400314008003140BB
:105790002DE9F84F9CB004000D001E00920000237C
:1057A0008E480121FFF7E4F9070034210022E84682
:1057B0004046FDF709FD3C2100220DF1340840462A
:1057C000FDF702FD20003100C0B2C9B2884201D10C
:1057D000012000E000209DF998B0DFF8049240F22B
:1057E000AB324946C0B200F09AFA30005946C0B216
:1057F000C9B2884201D1012000E000209DF99C80BF
:105800004FF46B724946C0B200F089FA062001904D
:10581000584640B2FFF725FC8DF80800584640B2C4
:10582000FFF7CBFB81465FF0080A584640B2FFF70E
:10583000C4FBDFF8B0B16A4699FBFAF10AFB119993
:105840004946C0B2C010C001584400F086FB062093
:105850000190300040B2FFF7F0FB8DF808003000F7
:1058600040B2FFF796FB81465FF0080A300040B275
:10587000FFF78FFB6A4699FBFAF10AFB119949463B
:10588000C0B2C010C001584400F067FB404640B2AF
:1058900004281ED008200190404640B2FFF7F5FBD7
:1058A0008DF80800404640B2FFF79BFB06005FF012
:1058B0000809404640B2FFF794FB6A4696FBF9F1AF
:1058C00009FB11663100C0B2C010C001584400F09D
:1058D00044FB9DF9A060300040B204281ED0062091
:1058E0000190300040B2FFF7E6FB8DF80800300071
:1058F00040B2FFF78CFB80465FF00809300040B2F1
:10590000FFF785FB6A4698FBF9F109FB11884146D0
:10591000C0B2C010C001584400F01FFB200040B2CC
:10592000FFF7DFFB2200D2B2521C032140B2FFF787
:10593000F5FA17F01F03C7F357122100C9B2491C2B
:105940000320FFF7A5FA2100C9B2491C0320FFF785
:1059500002FB6DB2002D05D0022D09D005D3032D19
:1059600009D00AE000200F9007E001200F9004E02A
:1059700002200F9001E003200F9001200D900020E5
:105980000E90042010900820119008201290012001
:105990008DF84C0001208DF84F000F4D00220DA90D
:1059A000200040B255F8200000F018FB0021200034
:1059B00040B255F82000FFF743FA200040B255F8F6
:1059C0002000FFF738FA034864B206551DB0BDE861
:1059D000F08F0000D86102080023020800002D317A
:1059E000ACDD08100000314082B0002001900020A2
:1059F00000900020019009E00098401C0090009861
:105A0000B0F5005FF8D30198401C01900198B0F503
:105A1000805F02D200200090F1E702B0704780B5AD
:105A20000100002000F0B2FD01BD2DE9F043ADF50D
:105A3000137D0700884616001C000020ADF8020008
:105A40000020ADF80000002002900020ADF8040016
:105A50000020ADF806004046FEF780FE0290DFF819
:105A6000A8532888002801D028698047DFF89C03C4
:105A70000078002800F036812888002800F0148182
:105A8000BDF90600411CADF806103A00010089B2CC
:105A90000020EB68984747464046FEF75FFE0290BD
:105AA0006888A97990FBF1F0ADF804003800471C34
:105AB00090F900000028F9D10020ADF8000010E0B6
:105AC0007F1E97F900002F2803D097F900005C286B
:105AD00004D1BDF80000401CADF800000298401E43
